{
  "_format": "hh-sol-artifact-1",
  "contractName": "BlockableRegistry",
  "sourceName": "contracts/BlockableRegistry.sol",
  "abi": [
    {
      "inputs": [
        {
          "internalType": "address",
          "name": "_mailbox",
          "type": "address"
        },
        {
          "internalType": "address",
          "name": "_gasPaymaster",
          "type": "address"
        }
      ],
      "stateMutability": "nonpayable",
      "type": "constructor"
    },
    {
      "inputs": [
        {
          "internalType": "address",
          "name": "owner",
          "type": "address"
        }
      ],
      "name": "OwnableInvalidOwner",
      "type": "error"
    },
    {
      "inputs": [
        {
          "internalType": "address",
          "name": "account",
          "type": "address"
        }
      ],
      "name": "OwnableUnauthorizedAccount",
      "type": "error"
    },
    {
      "anonymous": false,
      "inputs": [
        {
          "indexed": false,
          "internalType": "uint32",
          "name": "domain",
          "type": "uint32"
        },
        {
          "indexed": false,
          "internalType": "bytes32",
          "name": "contractAddress",
          "type": "bytes32"
        }
      ],
      "name": "ContractRegistered",
      "type": "event"
    },
    {
      "anonymous": false,
      "inputs": [
        {
          "indexed": false,
          "internalType": "uint32",
          "name": "destinationDomain",
          "type": "uint32"
        },
        {
          "indexed": false,
          "internalType": "bytes32",
          "name": "recipient",
          "type": "bytes32"
        },
        {
          "indexed": false,
          "internalType": "bytes",
          "name": "message",
          "type": "bytes"
        }
      ],
      "name": "CrossChainMessageSent",
      "type": "event"
    },
    {
      "anonymous": false,
      "inputs": [
        {
          "indexed": true,
          "internalType": "address",
          "name": "previousOwner",
          "type": "address"
        },
        {
          "indexed": true,
          "internalType": "address",
          "name": "newOwner",
          "type": "address"
        }
      ],
      "name": "OwnershipTransferred",
      "type": "event"
    },
    {
      "inputs": [],
      "name": "gasPaymaster",
      "outputs": [
        {
          "internalType": "contract IInterchainGasPaymaster",
          "name": "",
          "type": "address"
        }
      ],
      "stateMutability": "view",
      "type": "function"
    },
    {
      "inputs": [],
      "name": "mailbox",
      "outputs": [
        {
          "internalType": "contract IMailbox",
          "name": "",
          "type": "address"
        }
      ],
      "stateMutability": "view",
      "type": "function"
    },
    {
      "inputs": [],
      "name": "owner",
      "outputs": [
        {
          "internalType": "address",
          "name": "",
          "type": "address"
        }
      ],
      "stateMutability": "view",
      "type": "function"
    },
    {
      "inputs": [
        {
          "internalType": "uint32",
          "name": "domain",
          "type": "uint32"
        },
        {
          "internalType": "bytes32",
          "name": "contractAddress",
          "type": "bytes32"
        }
      ],
      "name": "registerContract",
      "outputs": [],
      "stateMutability": "nonpayable",
      "type": "function"
    },
    {
      "inputs": [
        {
          "internalType": "uint32",
          "name": "",
          "type": "uint32"
        }
      ],
      "name": "registeredContracts",
      "outputs": [
        {
          "internalType": "bytes32",
          "name": "",
          "type": "bytes32"
        }
      ],
      "stateMutability": "view",
      "type": "function"
    },
    {
      "inputs": [],
      "name": "renounceOwnership",
      "outputs": [],
      "stateMutability": "nonpayable",
      "type": "function"
    },
    {
      "inputs": [
        {
          "internalType": "uint32",
          "name": "destinationDomain",
          "type": "uint32"
        },
        {
          "internalType": "bytes",
          "name": "message",
          "type": "bytes"
        }
      ],
      "name": "sendCrossChainMessage",
      "outputs": [],
      "stateMutability": "payable",
      "type": "function"
    },
    {
      "inputs": [
        {
          "internalType": "address",
          "name": "newOwner",
          "type": "address"
        }
      ],
      "name": "transferOwnership",
      "outputs": [],
      "stateMutability": "nonpayable",
      "type": "function"
    }
  ],
  "bytecode": "0x608060405234801561001057600080fd5b5060405161077338038061077383398101604081905261002f916100fc565b338061005557604051631e4fbdf760e01b81526000600482015260240160405180910390fd5b61005e81610090565b50600180546001600160a01b039384166001600160a01b0319918216179091556002805492909316911617905561012f565b600080546001600160a01b038381166001600160a01b0319831681178455604051919092169283917f8be0079c531659141344cd1fd0a4f28419497f9722a3daafe3b4186f6b6457e09190a35050565b80516001600160a01b03811681146100f757600080fd5b919050565b6000806040838503121561010f57600080fd5b610118836100e0565b9150610126602084016100e0565b90509250929050565b6106358061013e6000396000f3fe60806040526004361061007b5760003560e01c8063b208bae51161004e578063b208bae514610105578063d5438eae14610125578063f2fde38b14610145578063fb965a951461016557600080fd5b8063715018a614610080578063805ef6e8146100975780638da5cb5b146100d45780639bbee36f146100f2575b600080fd5b34801561008c57600080fd5b506100956101a0565b005b3480156100a357600080fd5b506002546100b7906001600160a01b031681565b6040516001600160a01b0390911681526020015b60405180910390f35b3480156100e057600080fd5b506000546001600160a01b03166100b7565b6100956101003660046104ab565b6101b4565b34801561011157600080fd5b5061009561012036600461052e565b61037a565b34801561013157600080fd5b506001546100b7906001600160a01b031681565b34801561015157600080fd5b50610095610160366004610558565b6103d7565b34801561017157600080fd5b50610192610180366004610588565b60036020526000908152604090205481565b6040519081526020016100cb565b6101a8610415565b6101b26000610442565b565b63ffffffff83166000908152600360205260409020548061023b5760405162461bcd60e51b815260206004820152603660248201527f426c6f636b61626c6552656769737472793a2064657374696e6174696f6e20636044820152751bdb9d1c9858dd081b9bdd081c9959da5cdd195c995960521b60648201526084015b60405180910390fd5b60015460405163fa31de0160e01b81526000916001600160a01b03169063fa31de01906102729088908690899089906004016105a3565b6020604051808303816000875af1158015610291573d6000803e3d6000fd5b505050506040513d601f19601f820116820180604052508101906102b591906105e6565b9050341561033657600254604051630237e58360e31b81526004810183905263ffffffff8716602482015234604482018190523360648301526001600160a01b03909216916311bf2c18916084016000604051808303818588803b15801561031c57600080fd5b505af1158015610330573d6000803e3d6000fd5b50505050505b7fa82059cd1d5f984f1ce1af9e98e8acb611d1c5663059521736b9be7a9afe3fb58583868660405161036b94939291906105a3565b60405180910390a15050505050565b610382610415565b63ffffffff8216600081815260036020908152604091829020849055815192835282018390527fe52f3413d7055a07e08c7be0009f4f0807afee47bac4afbce6e8cc013d13f818910160405180910390a15050565b6103df610415565b6001600160a01b03811661040957604051631e4fbdf760e01b815260006004820152602401610232565b61041281610442565b50565b6000546001600160a01b031633146101b25760405163118cdaa760e01b8152336004820152602401610232565b600080546001600160a01b038381166001600160a01b0319831681178455604051919092169283917f8be0079c531659141344cd1fd0a4f28419497f9722a3daafe3b4186f6b6457e09190a35050565b803563ffffffff811681146104a657600080fd5b919050565b6000806000604084860312156104c057600080fd5b6104c984610492565b9250602084013567ffffffffffffffff808211156104e657600080fd5b818601915086601f8301126104fa57600080fd5b81358181111561050957600080fd5b87602082850101111561051b57600080fd5b6020830194508093505050509250925092565b6000806040838503121561054157600080fd5b61054a83610492565b946020939093013593505050565b60006020828403121561056a57600080fd5b81356001600160a01b038116811461058157600080fd5b9392505050565b60006020828403121561059a57600080fd5b61058182610492565b63ffffffff8516815283602082015260606040820152816060820152818360808301376000818301608090810191909152601f909201601f191601019392505050565b6000602082840312156105f857600080fd5b505191905056fea264697066735822122042c9b9c5c4d852dfadcd659c5819657dcda1872d83d6f3de419ec1ec8a42709064736f6c63430008140033",
  "linkReferences": {},
  "deployedLinkReferences": {}
}