{
  "_format": "hh-sol-artifact-1",
  "contractName": "Blockable",
  "sourceName": "contracts/Blockable.sol",
  "abi": [
    {
      "inputs": [],
      "stateMutability": "nonpayable",
      "type": "constructor"
    },
    {
      "inputs": [
        {
          "internalType": "address",
          "name": "sender",
          "type": "address"
        },
        {
          "internalType": "uint256",
          "name": "tokenId",
          "type": "uint256"
        },
        {
          "internalType": "address",
          "name": "owner",
          "type": "address"
        }
      ],
      "name": "ERC721IncorrectOwner",
      "type": "error"
    },
    {
      "inputs": [
        {
          "internalType": "address",
          "name": "operator",
          "type": "address"
        },
        {
          "internalType": "uint256",
          "name": "tokenId",
          "type": "uint256"
        }
      ],
      "name": "ERC721InsufficientApproval",
      "type": "error"
    },
    {
      "inputs": [
        {
          "internalType": "address",
          "name": "approver",
          "type": "address"
        }
      ],
      "name": "ERC721InvalidApprover",
      "type": "error"
    },
    {
      "inputs": [
        {
          "internalType": "address",
          "name": "operator",
          "type": "address"
        }
      ],
      "name": "ERC721InvalidOperator",
      "type": "error"
    },
    {
      "inputs": [
        {
          "internalType": "address",
          "name": "owner",
          "type": "address"
        }
      ],
      "name": "ERC721InvalidOwner",
      "type": "error"
    },
    {
      "inputs": [
        {
          "internalType": "address",
          "name": "receiver",
          "type": "address"
        }
      ],
      "name": "ERC721InvalidReceiver",
      "type": "error"
    },
    {
      "inputs": [
        {
          "internalType": "address",
          "name": "sender",
          "type": "address"
        }
      ],
      "name": "ERC721InvalidSender",
      "type": "error"
    },
    {
      "inputs": [
        {
          "internalType": "uint256",
          "name": "tokenId",
          "type": "uint256"
        }
      ],
      "name": "ERC721NonexistentToken",
      "type": "error"
    },
    {
      "inputs": [
        {
          "internalType": "address",
          "name": "owner",
          "type": "address"
        }
      ],
      "name": "OwnableInvalidOwner",
      "type": "error"
    },
    {
      "inputs": [
        {
          "internalType": "address",
          "name": "account",
          "type": "address"
        }
      ],
      "name": "OwnableUnauthorizedAccount",
      "type": "error"
    },
    {
      "anonymous": false,
      "inputs": [
        {
          "indexed": true,
          "internalType": "address",
          "name": "owner",
          "type": "address"
        },
        {
          "indexed": true,
          "internalType": "address",
          "name": "approved",
          "type": "address"
        },
        {
          "indexed": true,
          "internalType": "uint256",
          "name": "tokenId",
          "type": "uint256"
        }
      ],
      "name": "Approval",
      "type": "event"
    },
    {
      "anonymous": false,
      "inputs": [
        {
          "indexed": true,
          "internalType": "address",
          "name": "owner",
          "type": "address"
        },
        {
          "indexed": true,
          "internalType": "address",
          "name": "operator",
          "type": "address"
        },
        {
          "indexed": false,
          "internalType": "bool",
          "name": "approved",
          "type": "bool"
        }
      ],
      "name": "ApprovalForAll",
      "type": "event"
    },
    {
      "anonymous": false,
      "inputs": [
        {
          "indexed": true,
          "internalType": "uint256",
          "name": "tokenId",
          "type": "uint256"
        },
        {
          "indexed": true,
          "internalType": "address",
          "name": "creator",
          "type": "address"
        },
        {
          "indexed": false,
          "internalType": "string",
          "name": "metadataHash",
          "type": "string"
        }
      ],
      "name": "ArtifactCreated",
      "type": "event"
    },
    {
      "anonymous": false,
      "inputs": [
        {
          "indexed": true,
          "internalType": "uint256",
          "name": "tokenId",
          "type": "uint256"
        },
        {
          "indexed": false,
          "internalType": "string",
          "name": "newMetadataHash",
          "type": "string"
        }
      ],
      "name": "ArtifactUpdated",
      "type": "event"
    },
    {
      "anonymous": false,
      "inputs": [
        {
          "indexed": false,
          "internalType": "uint256",
          "name": "_fromTokenId",
          "type": "uint256"
        },
        {
          "indexed": false,
          "internalType": "uint256",
          "name": "_toTokenId",
          "type": "uint256"
        }
      ],
      "name": "BatchMetadataUpdate",
      "type": "event"
    },
    {
      "anonymous": false,
      "inputs": [
        {
          "indexed": false,
          "internalType": "uint256",
          "name": "_tokenId",
          "type": "uint256"
        }
      ],
      "name": "MetadataUpdate",
      "type": "event"
    },
    {
      "anonymous": false,
      "inputs": [
        {
          "indexed": true,
          "internalType": "address",
          "name": "previousOwner",
          "type": "address"
        },
        {
          "indexed": true,
          "internalType": "address",
          "name": "newOwner",
          "type": "address"
        }
      ],
      "name": "OwnershipTransferred",
      "type": "event"
    },
    {
      "anonymous": false,
      "inputs": [
        {
          "indexed": true,
          "internalType": "address",
          "name": "from",
          "type": "address"
        },
        {
          "indexed": true,
          "internalType": "address",
          "name": "to",
          "type": "address"
        },
        {
          "indexed": true,
          "internalType": "uint256",
          "name": "tokenId",
          "type": "uint256"
        }
      ],
      "name": "Transfer",
      "type": "event"
    },
    {
      "inputs": [
        {
          "internalType": "address",
          "name": "to",
          "type": "address"
        },
        {
          "internalType": "uint256",
          "name": "tokenId",
          "type": "uint256"
        }
      ],
      "name": "approve",
      "outputs": [],
      "stateMutability": "nonpayable",
      "type": "function"
    },
    {
      "inputs": [
        {
          "internalType": "address",
          "name": "owner",
          "type": "address"
        }
      ],
      "name": "balanceOf",
      "outputs": [
        {
          "internalType": "uint256",
          "name": "",
          "type": "uint256"
        }
      ],
      "stateMutability": "view",
      "type": "function"
    },
    {
      "inputs": [
        {
          "internalType": "address",
          "name": "recipient",
          "type": "address"
        },
        {
          "internalType": "string",
          "name": "tokenURI",
          "type": "string"
        },
        {
          "internalType": "string",
          "name": "metadataHash",
          "type": "string"
        }
      ],
      "name": "createArtifact",
      "outputs": [
        {
          "internalType": "uint256",
          "name": "",
          "type": "uint256"
        }
      ],
      "stateMutability": "nonpayable",
      "type": "function"
    },
    {
      "inputs": [
        {
          "internalType": "uint256",
          "name": "tokenId",
          "type": "uint256"
        }
      ],
      "name": "getApproved",
      "outputs": [
        {
          "internalType": "address",
          "name": "",
          "type": "address"
        }
      ],
      "stateMutability": "view",
      "type": "function"
    },
    {
      "inputs": [
        {
          "internalType": "uint256",
          "name": "tokenId",
          "type": "uint256"
        }
      ],
      "name": "getMetadataHash",
      "outputs": [
        {
          "internalType": "string",
          "name": "",
          "type": "string"
        }
      ],
      "stateMutability": "view",
      "type": "function"
    },
    {
      "inputs": [
        {
          "internalType": "address",
          "name": "owner",
          "type": "address"
        },
        {
          "internalType": "address",
          "name": "operator",
          "type": "address"
        }
      ],
      "name": "isApprovedForAll",
      "outputs": [
        {
          "internalType": "bool",
          "name": "",
          "type": "bool"
        }
      ],
      "stateMutability": "view",
      "type": "function"
    },
    {
      "inputs": [],
      "name": "name",
      "outputs": [
        {
          "internalType": "string",
          "name": "",
          "type": "string"
        }
      ],
      "stateMutability": "view",
      "type": "function"
    },
    {
      "inputs": [],
      "name": "owner",
      "outputs": [
        {
          "internalType": "address",
          "name": "",
          "type": "address"
        }
      ],
      "stateMutability": "view",
      "type": "function"
    },
    {
      "inputs": [
        {
          "internalType": "uint256",
          "name": "tokenId",
          "type": "uint256"
        }
      ],
      "name": "ownerOf",
      "outputs": [
        {
          "internalType": "address",
          "name": "",
          "type": "address"
        }
      ],
      "stateMutability": "view",
      "type": "function"
    },
    {
      "inputs": [],
      "name": "renounceOwnership",
      "outputs": [],
      "stateMutability": "nonpayable",
      "type": "function"
    },
    {
      "inputs": [
        {
          "internalType": "address",
          "name": "from",
          "type": "address"
        },
        {
          "internalType": "address",
          "name": "to",
          "type": "address"
        },
        {
          "internalType": "uint256",
          "name": "tokenId",
          "type": "uint256"
        }
      ],
      "name": "safeTransferFrom",
      "outputs": [],
      "stateMutability": "nonpayable",
      "type": "function"
    },
    {
      "inputs": [
        {
          "internalType": "address",
          "name": "from",
          "type": "address"
        },
        {
          "internalType": "address",
          "name": "to",
          "type": "address"
        },
        {
          "internalType": "uint256",
          "name": "tokenId",
          "type": "uint256"
        },
        {
          "internalType": "bytes",
          "name": "data",
          "type": "bytes"
        }
      ],
      "name": "safeTransferFrom",
      "outputs": [],
      "stateMutability": "nonpayable",
      "type": "function"
    },
    {
      "inputs": [
        {
          "internalType": "address",
          "name": "operator",
          "type": "address"
        },
        {
          "internalType": "bool",
          "name": "approved",
          "type": "bool"
        }
      ],
      "name": "setApprovalForAll",
      "outputs": [],
      "stateMutability": "nonpayable",
      "type": "function"
    },
    {
      "inputs": [
        {
          "internalType": "bytes4",
          "name": "interfaceId",
          "type": "bytes4"
        }
      ],
      "name": "supportsInterface",
      "outputs": [
        {
          "internalType": "bool",
          "name": "",
          "type": "bool"
        }
      ],
      "stateMutability": "view",
      "type": "function"
    },
    {
      "inputs": [],
      "name": "symbol",
      "outputs": [
        {
          "internalType": "string",
          "name": "",
          "type": "string"
        }
      ],
      "stateMutability": "view",
      "type": "function"
    },
    {
      "inputs": [
        {
          "internalType": "uint256",
          "name": "tokenId",
          "type": "uint256"
        }
      ],
      "name": "tokenURI",
      "outputs": [
        {
          "internalType": "string",
          "name": "",
          "type": "string"
        }
      ],
      "stateMutability": "view",
      "type": "function"
    },
    {
      "inputs": [
        {
          "internalType": "address",
          "name": "from",
          "type": "address"
        },
        {
          "internalType": "address",
          "name": "to",
          "type": "address"
        },
        {
          "internalType": "uint256",
          "name": "tokenId",
          "type": "uint256"
        }
      ],
      "name": "transferFrom",
      "outputs": [],
      "stateMutability": "nonpayable",
      "type": "function"
    },
    {
      "inputs": [
        {
          "internalType": "address",
          "name": "newOwner",
          "type": "address"
        }
      ],
      "name": "transferOwnership",
      "outputs": [],
      "stateMutability": "nonpayable",
      "type": "function"
    },
    {
      "inputs": [
        {
          "internalType": "uint256",
          "name": "tokenId",
          "type": "uint256"
        },
        {
          "internalType": "string",
          "name": "newTokenURI",
          "type": "string"
        },
        {
          "internalType": "string",
          "name": "newMetadataHash",
          "type": "string"
        }
      ],
      "name": "updateArtifact",
      "outputs": [],
      "stateMutability": "nonpayable",
      "type": "function"
    }
  ],
  "bytecode": "0x60806040523480156200001157600080fd5b503360405180604001604052806009815260200168426c6f636b61626c6560b81b81525060405180604001604052806005815260200164424c4f434b60d81b8152508160009081620000649190620001b3565b506001620000738282620001b3565b5050506001600160a01b038116620000a557604051631e4fbdf760e01b81526000600482015260240160405180910390fd5b620000b081620000bc565b5060006008556200027f565b600780546001600160a01b038381166001600160a01b0319831681179093556040519116919082907f8be0079c531659141344cd1fd0a4f28419497f9722a3daafe3b4186f6b6457e090600090a35050565b634e487b7160e01b600052604160045260246000fd5b600181811c908216806200013957607f821691505b6020821081036200015a57634e487b7160e01b600052602260045260246000fd5b50919050565b601f821115620001ae57600081815260208120601f850160051c81016020861015620001895750805b601f850160051c820191505b81811015620001aa5782815560010162000195565b5050505b505050565b81516001600160401b03811115620001cf57620001cf6200010e565b620001e781620001e0845462000124565b8462000160565b602080601f8311600181146200021f5760008415620002065750858301515b600019600386901b1c1916600185901b178555620001aa565b600085815260208120601f198616915b8281101562000250578886015182559484019460019091019084016200022f565b50858210156200026f5787850151600019600388901b60f8161c191681555b5050505050600190811b01905550565b611753806200028f6000396000f3fe608060405234801561001057600080fd5b50600436106101215760003560e01c8063715018a6116100ad578063b88d4fde11610071578063b88d4fde14610257578063c87b56dd1461026a578063e985e9c51461027d578063f2fde38b14610290578063f448f871146102a357600080fd5b8063715018a6146102105780637a2d93b2146102185780638da5cb5b1461022b57806395d89b411461023c578063a22cb4651461024457600080fd5b806323b872dd116100f457806323b872dd146101a357806342842e0e146101b6578063457c2291146101c95780636352211e146101ea57806370a08231146101fd57600080fd5b806301ffc9a71461012657806306fdde031461014e578063081812fc14610163578063095ea7b31461018e575b600080fd5b6101396101343660046111b8565b6102b6565b60405190151581526020015b60405180910390f35b6101566102e1565b6040516101459190611225565b610176610171366004611238565b610373565b6040516001600160a01b039091168152602001610145565b6101a161019c36600461126d565b61039c565b005b6101a16101b1366004611297565b6103ab565b6101a16101c4366004611297565b61043b565b6101dc6101d736600461137f565b61045b565b604051908152602001610145565b6101766101f8366004611238565b6104ec565b6101dc61020b3660046113f3565b6104f7565b6101a161053f565b6101a161022636600461140e565b610553565b6007546001600160a01b0316610176565b6101566106b4565b6101a1610252366004611442565b6106c3565b6101a161026536600461147e565b6106ce565b610156610278366004611238565b6106e6565b61013961028b3660046114fa565b6107f7565b6101a161029e3660046113f3565b610825565b6101566102b1366004611238565b610863565b60006001600160e01b03198216632483248360e11b14806102db57506102db82610968565b92915050565b6060600080546102f09061152d565b80601f016020809104026020016040519081016040528092919081815260200182805461031c9061152d565b80156103695780601f1061033e57610100808354040283529160200191610369565b820191906000526020600020905b81548152906001019060200180831161034c57829003601f168201915b5050505050905090565b600061037e826109b8565b506000828152600460205260409020546001600160a01b03166102db565b6103a78282336109f1565b5050565b6001600160a01b0382166103da57604051633250574960e11b8152600060048201526024015b60405180910390fd5b60006103e78383336109fe565b9050836001600160a01b0316816001600160a01b031614610435576040516364283d7b60e01b81526001600160a01b03808616600483015260248201849052821660448201526064016103d1565b50505050565b610456838383604051806020016040528060008152506106ce565b505050565b600880546000918291908261046f83611567565b91905055905061047f8582610af7565b6104898185610b5c565b60008181526009602052604090206104a184826115d4565b50846001600160a01b0316817fa9c6dfece4407c611c25470081b4040479895cfd325b1c56a232ae9e89b40b70856040516104dc9190611225565b60405180910390a3949350505050565b60006102db826109b8565b60006001600160a01b038216610523576040516322718ad960e21b8152600060048201526024016103d1565b506001600160a01b031660009081526003602052604090205490565b610547610bac565b6105516000610bd9565b565b6000838152600260205260409020546001600160a01b03166105b75760405162461bcd60e51b815260206004820152601f60248201527f426c6f636b61626c653a20746f6b656e20646f6573206e6f742065786973740060448201526064016103d1565b336105c1846104ec565b6001600160a01b031614806105ef5750336105e46007546001600160a01b031690565b6001600160a01b0316145b6106545760405162461bcd60e51b815260206004820152603060248201527f426c6f636b61626c653a2063616c6c6572206973206e6f74206f776e6572206f60448201526f391031b7b73a3930b1ba1037bbb732b960811b60648201526084016103d1565b61065e8383610b5c565b600083815260096020526040902061067682826115d4565b50827f726abad6eb55e07e0743b69e582285757a338e05a30df71507e0f9ea6b94bcf7826040516106a79190611225565b60405180910390a2505050565b6060600180546102f09061152d565b6103a7338383610c2b565b6106d98484846103ab565b6104353385858585610cca565b60606106f1826109b8565b506000828152600660205260408120805461070b9061152d565b80601f01602080910402602001604051908101604052809291908181526020018280546107379061152d565b80156107845780601f1061075957610100808354040283529160200191610784565b820191906000526020600020905b81548152906001019060200180831161076757829003601f168201915b5050505050905060006107a260408051602081019091526000815290565b905080516000036107b4575092915050565b8151156107e65780826040516020016107ce929190611694565b60405160208183030381529060405292505050919050565b6107ef84610df5565b949350505050565b6001600160a01b03918216600090815260056020908152604080832093909416825291909152205460ff1690565b61082d610bac565b6001600160a01b03811661085757604051631e4fbdf760e01b8152600060048201526024016103d1565b61086081610bd9565b50565b6000818152600260205260409020546060906001600160a01b03166108ca5760405162461bcd60e51b815260206004820152601f60248201527f426c6f636b61626c653a20746f6b656e20646f6573206e6f742065786973740060448201526064016103d1565b600082815260096020526040902080546108e39061152d565b80601f016020809104026020016040519081016040528092919081815260200182805461090f9061152d565b801561095c5780601f106109315761010080835404028352916020019161095c565b820191906000526020600020905b81548152906001019060200180831161093f57829003601f168201915b50505050509050919050565b60006001600160e01b031982166380ac58cd60e01b148061099957506001600160e01b03198216635b5e139f60e01b145b806102db57506301ffc9a760e01b6001600160e01b03198316146102db565b6000818152600260205260408120546001600160a01b0316806102db57604051637e27328960e01b8152600481018490526024016103d1565b6104568383836001610e6a565b6000828152600260205260408120546001600160a01b0390811690831615610a2b57610a2b818486610f70565b6001600160a01b03811615610a6957610a48600085600080610e6a565b6001600160a01b038116600090815260036020526040902080546000190190555b6001600160a01b03851615610a98576001600160a01b0385166000908152600360205260409020805460010190555b60008481526002602052604080822080546001600160a01b0319166001600160a01b0389811691821790925591518793918516917fddf252ad1be2c89b69c2b068fc378daa952ba7f163c4a11628f55a4df523b3ef91a4949350505050565b6001600160a01b038216610b2157604051633250574960e11b8152600060048201526024016103d1565b6000610b2f838360006109fe565b90506001600160a01b03811615610456576040516339e3563760e11b8152600060048201526024016103d1565b6000828152600660205260409020610b7482826115d4565b506040518281527ff8e1a15aba9398e019f0b49df1a4fde98ee17ae345cb5f6b5e2c27f5033e8ce79060200160405180910390a15050565b6007546001600160a01b031633146105515760405163118cdaa760e01b81523360048201526024016103d1565b600780546001600160a01b038381166001600160a01b0319831681179093556040519116919082907f8be0079c531659141344cd1fd0a4f28419497f9722a3daafe3b4186f6b6457e090600090a35050565b6001600160a01b038216610c5d57604051630b61174360e31b81526001600160a01b03831660048201526024016103d1565b6001600160a01b03838116600081815260056020908152604080832094871680845294825291829020805460ff191686151590811790915591519182527f17307eab39ab6107e8899845ad3d59bd9653f200f220920489ca2b5937696c31910160405180910390a3505050565b6001600160a01b0383163b15610dee57604051630a85bd0160e11b81526001600160a01b0384169063150b7a0290610d0c9088908890879087906004016116c3565b6020604051808303816000875af1925050508015610d47575060408051601f3d908101601f19168201909252610d4491810190611700565b60015b610db0573d808015610d75576040519150601f19603f3d011682016040523d82523d6000602084013e610d7a565b606091505b508051600003610da857604051633250574960e11b81526001600160a01b03851660048201526024016103d1565b805181602001fd5b6001600160e01b03198116630a85bd0160e11b14610dec57604051633250574960e11b81526001600160a01b03851660048201526024016103d1565b505b5050505050565b6060610e00826109b8565b506000610e1860408051602081019091526000815290565b90506000815111610e385760405180602001604052806000815250610e63565b80610e4284610fd4565b604051602001610e53929190611694565b6040516020818303038152906040525b9392505050565b8080610e7e57506001600160a01b03821615155b15610f40576000610e8e846109b8565b90506001600160a01b03831615801590610eba5750826001600160a01b0316816001600160a01b031614155b8015610ecd5750610ecb81846107f7565b155b15610ef65760405163a9fbf51f60e01b81526001600160a01b03841660048201526024016103d1565b8115610f3e5783856001600160a01b0316826001600160a01b03167f8c5be1e5ebec7d5bd14f71427d1e84f3dd0314c0f7b2291e5b200ac8c7c3b92560405160405180910390a45b505b5050600090815260046020526040902080546001600160a01b0319166001600160a01b0392909216919091179055565b610f7b838383611067565b610456576001600160a01b038316610fa957604051637e27328960e01b8152600481018290526024016103d1565b60405163177e802f60e01b81526001600160a01b0383166004820152602481018290526044016103d1565b60606000610fe1836110ca565b600101905060008167ffffffffffffffff811115611001576110016112d3565b6040519080825280601f01601f19166020018201604052801561102b576020820181803683370190505b5090508181016020015b600019016f181899199a1a9b1b9c1cb0b131b232b360811b600a86061a8153600a850494508461103557509392505050565b60006001600160a01b038316158015906107ef5750826001600160a01b0316846001600160a01b031614806110a157506110a184846107f7565b806107ef5750506000908152600460205260409020546001600160a01b03908116911614919050565b60008072184f03e93ff9f4daa797ed6e38ed64bf6a1f0160401b83106111095772184f03e93ff9f4daa797ed6e38ed64bf6a1f0160401b830492506040015b6d04ee2d6d415b85acef81000000008310611135576d04ee2d6d415b85acef8100000000830492506020015b662386f26fc10000831061115357662386f26fc10000830492506010015b6305f5e100831061116b576305f5e100830492506008015b612710831061117f57612710830492506004015b60648310611191576064830492506002015b600a83106102db5760010192915050565b6001600160e01b03198116811461086057600080fd5b6000602082840312156111ca57600080fd5b8135610e63816111a2565b60005b838110156111f05781810151838201526020016111d8565b50506000910152565b600081518084526112118160208601602086016111d5565b601f01601f19169290920160200192915050565b602081526000610e6360208301846111f9565b60006020828403121561124a57600080fd5b5035919050565b80356001600160a01b038116811461126857600080fd5b919050565b6000806040838503121561128057600080fd5b61128983611251565b946020939093013593505050565b6000806000606084860312156112ac57600080fd5b6112b584611251565b92506112c360208501611251565b9150604084013590509250925092565b634e487b7160e01b600052604160045260246000fd5b600067ffffffffffffffff80841115611304576113046112d3565b604051601f8501601f19908116603f0116810190828211818310171561132c5761132c6112d3565b8160405280935085815286868601111561134557600080fd5b858560208301376000602087830101525050509392505050565b600082601f83011261137057600080fd5b610e63838335602085016112e9565b60008060006060848603121561139457600080fd5b61139d84611251565b9250602084013567ffffffffffffffff808211156113ba57600080fd5b6113c68783880161135f565b935060408601359150808211156113dc57600080fd5b506113e98682870161135f565b9150509250925092565b60006020828403121561140557600080fd5b610e6382611251565b60008060006060848603121561142357600080fd5b83359250602084013567ffffffffffffffff808211156113ba57600080fd5b6000806040838503121561145557600080fd5b61145e83611251565b91506020830135801515811461147357600080fd5b809150509250929050565b6000806000806080858703121561149457600080fd5b61149d85611251565b93506114ab60208601611251565b925060408501359150606085013567ffffffffffffffff8111156114ce57600080fd5b8501601f810187136114df57600080fd5b6114ee878235602084016112e9565b91505092959194509250565b6000806040838503121561150d57600080fd5b61151683611251565b915061152460208401611251565b90509250929050565b600181811c9082168061154157607f821691505b60208210810361156157634e487b7160e01b600052602260045260246000fd5b50919050565b60006001820161158757634e487b7160e01b600052601160045260246000fd5b5060010190565b601f82111561045657600081815260208120601f850160051c810160208610156115b55750805b601f850160051c820191505b81811015610dec578281556001016115c1565b815167ffffffffffffffff8111156115ee576115ee6112d3565b611602816115fc845461152d565b8461158e565b602080601f831160018114611637576000841561161f5750858301515b600019600386901b1c1916600185901b178555610dec565b600085815260208120601f198616915b8281101561166657888601518255948401946001909101908401611647565b50858210156116845787850151600019600388901b60f8161c191681555b5050505050600190811b01905550565b600083516116a68184602088016111d5565b8351908301906116ba8183602088016111d5565b01949350505050565b6001600160a01b03858116825284166020820152604081018390526080606082018190526000906116f6908301846111f9565b9695505050505050565b60006020828403121561171257600080fd5b8151610e63816111a256fea2646970667358221220d60ffafabb7077ff1829fbae4229fb064de916f97291ded25f3f481bd990e9f064736f6c63430008140033",
  "linkReferences": {},
  "deployedLinkReferences": {}
}