{"contracts/Blockable.sol":{"Blockable":{"abi":[{"inputs":[],"stateMutability":"nonpayable","type":"constructor"},{"inputs":[{"internalType":"address","name":"sender","type":"address"},{"internalType":"uint256","name":"tokenId","type":"uint256"},{"internalType":"address","name":"owner","type":"address"}],"name":"ERC721IncorrectOwner","type":"error"},{"inputs":[{"internalType":"address","name":"operator","type":"address"},{"internalType":"uint256","name":"tokenId","type":"uint256"}],"name":"ERC721InsufficientApproval","type":"error"},{"inputs":[{"internalType":"address","name":"approver","type":"address"}],"name":"ERC721InvalidApprover","type":"error"},{"inputs":[{"internalType":"address","name":"operator","type":"address"}],"name":"ERC721InvalidOperator","type":"error"},{"inputs":[{"internalType":"address","name":"owner","type":"address"}],"name":"ERC721InvalidOwner","type":"error"},{"inputs":[{"internalType":"address","name":"receiver","type":"address"}],"name":"ERC721InvalidReceiver","type":"error"},{"inputs":[{"internalType":"address","name":"sender","type":"address"}],"name":"ERC721InvalidSender","type":"error"},{"inputs":[{"internalType":"uint256","name":"tokenId","type":"uint256"}],"name":"ERC721NonexistentToken","type":"error"},{"inputs":[{"internalType":"address","name":"owner","type":"address"}],"name":"OwnableInvalidOwner","type":"error"},{"inputs":[{"internalType":"address","name":"account","type":"address"}],"name":"OwnableUnauthorizedAccount","type":"error"},{"anonymous":false,"inputs":[{"indexed":true,"internalType":"address","name":"owner","type":"address"},{"indexed":true,"internalType":"address","name":"approved","type":"address"},{"indexed":true,"internalType":"uint256","name":"tokenId","type":"uint256"}],"name":"Approval","type":"event"},{"anonymous":false,"inputs":[{"indexed":true,"internalType":"address","name":"owner","type":"address"},{"indexed":true,"internalType":"address","name":"operator","type":"address"},{"indexed":false,"internalType":"bool","name":"approved","type":"bool"}],"name":"ApprovalForAll","type":"event"},{"anonymous":false,"inputs":[{"indexed":true,"internalType":"uint256","name":"tokenId","type":"uint256"},{"indexed":true,"internalType":"address","name":"creator","type":"address"},{"indexed":false,"internalType":"string","name":"metadataHash","type":"string"}],"name":"ArtifactCreated","type":"event"},{"anonymous":false,"inputs":[{"indexed":true,"internalType":"uint256","name":"tokenId","type":"uint256"},{"indexed":false,"internalType":"string","name":"newMetadataHash","type":"string"}],"name":"ArtifactUpdated","type":"event"},{"anonymous":false,"inputs":[{"indexed":false,"internalType":"uint256","name":"_fromTokenId","type":"uint256"},{"indexed":false,"internalType":"uint256","name":"_toTokenId","type":"uint256"}],"name":"BatchMetadataUpdate","type":"event"},{"anonymous":false,"inputs":[{"indexed":false,"internalType":"uint256","name":"_tokenId","type":"uint256"}],"name":"MetadataUpdate","type":"event"},{"anonymous":false,"inputs":[{"indexed":true,"internalType":"address","name":"previousOwner","type":"address"},{"indexed":true,"internalType":"address","name":"newOwner","type":"address"}],"name":"OwnershipTransferred","type":"event"},{"anonymous":false,"inputs":[{"indexed":true,"internalType":"address","name":"from","type":"address"},{"indexed":true,"internalType":"address","name":"to","type":"address"},{"indexed":true,"internalType":"uint256","name":"tokenId","type":"uint256"}],"name":"Transfer","type":"event"},{"inputs":[{"internalType":"address","name":"to","type":"address"},{"internalType":"uint256","name":"tokenId","type":"uint256"}],"name":"approve","outputs":[],"stateMutability":"nonpayable","type":"function"},{"inputs":[{"internalType":"address","name":"owner","type":"address"}],"name":"balanceOf","outputs":[{"internalType":"uint256","name":"","type":"uint256"}],"stateMutability":"view","type":"function"},{"inputs":[{"internalType":"address","name":"recipient","type":"address"},{"internalType":"string","name":"tokenURI","type":"string"},{"internalType":"string","name":"metadataHash","type":"string"}],"name":"createArtifact","outputs":[{"internalType":"uint256","name":"","type":"uint256"}],"stateMutability":"nonpayable","type":"function"},{"inputs":[{"internalType":"uint256","name":"tokenId","type":"uint256"}],"name":"getApproved","outputs":[{"internalType":"address","name":"","type":"address"}],"stateMutability":"view","type":"function"},{"inputs":[{"internalType":"uint256","name":"tokenId","type":"uint256"}],"name":"getMetadataHash","outputs":[{"internalType":"string","name":"","type":"string"}],"stateMutability":"view","type":"function"},{"inputs":[{"internalType":"address","name":"owner","type":"address"},{"internalType":"address","name":"operator","type":"address"}],"name":"isApprovedForAll","outputs":[{"internalType":"bool","name":"","type":"bool"}],"stateMutability":"view","type":"function"},{"inputs":[],"name":"name","outputs":[{"internalType":"string","name":"","type":"string"}],"stateMutability":"view","type":"function"},{"inputs":[],"name":"owner","outputs":[{"internalType":"address","name":"","type":"address"}],"stateMutability":"view","type":"function"},{"inputs":[{"internalType":"uint256","name":"tokenId","type":"uint256"}],"name":"ownerOf","outputs":[{"internalType":"address","name":"","type":"address"}],"stateMutability":"view","type":"function"},{"inputs":[],"name":"renounceOwnership","outputs":[],"stateMutability":"nonpayable","type":"function"},{"inputs":[{"internalType":"address","name":"from","type":"address"},{"internalType":"address","name":"to","type":"address"},{"internalType":"uint256","name":"tokenId","type":"uint256"}],"name":"safeTransferFrom","outputs":[],"stateMutability":"nonpayable","type":"function"},{"inputs":[{"internalType":"address","name":"from","type":"address"},{"internalType":"address","name":"to","type":"address"},{"internalType":"uint256","name":"tokenId","type":"uint256"},{"internalType":"bytes","name":"data","type":"bytes"}],"name":"safeTransferFrom","outputs":[],"stateMutability":"nonpayable","type":"function"},{"inputs":[{"internalType":"address","name":"operator","type":"address"},{"internalType":"bool","name":"approved","type":"bool"}],"name":"setApprovalForAll","outputs":[],"stateMutability":"nonpayable","type":"function"},{"inputs":[{"internalType":"bytes4","name":"interfaceId","type":"bytes4"}],"name":"supportsInterface","outputs":[{"internalType":"bool","name":"","type":"bool"}],"stateMutability":"view","type":"function"},{"inputs":[],"name":"symbol","outputs":[{"internalType":"string","name":"","type":"string"}],"stateMutability":"view","type":"function"},{"inputs":[{"internalType":"uint256","name":"tokenId","type":"uint256"}],"name":"tokenURI","outputs":[{"internalType":"string","name":"","type":"string"}],"stateMutability":"view","type":"function"},{"inputs":[{"internalType":"address","name":"from","type":"address"},{"internalType":"address","name":"to","type":"address"},{"internalType":"uint256","name":"tokenId","type":"uint256"}],"name":"transferFrom","outputs":[],"stateMutability":"nonpayable","type":"function"},{"inputs":[{"internalType":"address","name":"newOwner","type":"address"}],"name":"transferOwnership","outputs":[],"stateMutability":"nonpayable","type":"function"},{"inputs":[{"internalType":"uint256","name":"tokenId","type":"uint256"},{"internalType":"string","name":"newTokenURI","type":"string"},{"internalType":"string","name":"newMetadataHash","type":"string"}],"name":"updateArtifact","outputs":[],"stateMutability":"nonpayable","type":"function"}],"evm":{"bytecode":{"linkReferences":{},"object":"60806040523480156200001157600080fd5b503360405180604001604052806009815260200168426c6f636b61626c6560b81b81525060405180604001604052806005815260200164424c4f434b60d81b8152508160009081620000649190620001b3565b506001620000738282620001b3565b5050506001600160a01b038116620000a557604051631e4fbdf760e01b81526000600482015260240160405180910390fd5b620000b081620000bc565b5060006008556200027f565b600780546001600160a01b038381166001600160a01b0319831681179093556040519116919082907f8be0079c531659141344cd1fd0a4f28419497f9722a3daafe3b4186f6b6457e090600090a35050565b634e487b7160e01b600052604160045260246000fd5b600181811c908216806200013957607f821691505b6020821081036200015a57634e487b7160e01b600052602260045260246000fd5b50919050565b601f821115620001ae57600081815260208120601f850160051c81016020861015620001895750805b601f850160051c820191505b81811015620001aa5782815560010162000195565b5050505b505050565b81516001600160401b03811115620001cf57620001cf6200010e565b620001e781620001e0845462000124565b8462000160565b602080601f8311600181146200021f5760008415620002065750858301515b600019600386901b1c1916600185901b178555620001aa565b600085815260208120601f198616915b8281101562000250578886015182559484019460019091019084016200022f565b50858210156200026f5787850151600019600388901b60f8161c191681555b5050505050600190811b01905550565b611753806200028f6000396000f3fe608060405234801561001057600080fd5b50600436106101215760003560e01c8063715018a6116100ad578063b88d4fde11610071578063b88d4fde14610257578063c87b56dd1461026a578063e985e9c51461027d578063f2fde38b14610290578063f448f871146102a357600080fd5b8063715018a6146102105780637a2d93b2146102185780638da5cb5b1461022b57806395d89b411461023c578063a22cb4651461024457600080fd5b806323b872dd116100f457806323b872dd146101a357806342842e0e146101b6578063457c2291146101c95780636352211e146101ea57806370a08231146101fd57600080fd5b806301ffc9a71461012657806306fdde031461014e578063081812fc14610163578063095ea7b31461018e575b600080fd5b6101396101343660046111b8565b6102b6565b60405190151581526020015b60405180910390f35b6101566102e1565b6040516101459190611225565b610176610171366004611238565b610373565b6040516001600160a01b039091168152602001610145565b6101a161019c36600461126d565b61039c565b005b6101a16101b1366004611297565b6103ab565b6101a16101c4366004611297565b61043b565b6101dc6101d736600461137f565b61045b565b604051908152602001610145565b6101766101f8366004611238565b6104ec565b6101dc61020b3660046113f3565b6104f7565b6101a161053f565b6101a161022636600461140e565b610553565b6007546001600160a01b0316610176565b6101566106b4565b6101a1610252366004611442565b6106c3565b6101a161026536600461147e565b6106ce565b610156610278366004611238565b6106e6565b61013961028b3660046114fa565b6107f7565b6101a161029e3660046113f3565b610825565b6101566102b1366004611238565b610863565b60006001600160e01b03198216632483248360e11b14806102db57506102db82610968565b92915050565b6060600080546102f09061152d565b80601f016020809104026020016040519081016040528092919081815260200182805461031c9061152d565b80156103695780601f1061033e57610100808354040283529160200191610369565b820191906000526020600020905b81548152906001019060200180831161034c57829003601f168201915b5050505050905090565b600061037e826109b8565b506000828152600460205260409020546001600160a01b03166102db565b6103a78282336109f1565b5050565b6001600160a01b0382166103da57604051633250574960e11b8152600060048201526024015b60405180910390fd5b60006103e78383336109fe565b9050836001600160a01b0316816001600160a01b031614610435576040516364283d7b60e01b81526001600160a01b03808616600483015260248201849052821660448201526064016103d1565b50505050565b610456838383604051806020016040528060008152506106ce565b505050565b600880546000918291908261046f83611567565b91905055905061047f8582610af7565b6104898185610b5c565b60008181526009602052604090206104a184826115d4565b50846001600160a01b0316817fa9c6dfece4407c611c25470081b4040479895cfd325b1c56a232ae9e89b40b70856040516104dc9190611225565b60405180910390a3949350505050565b60006102db826109b8565b60006001600160a01b038216610523576040516322718ad960e21b8152600060048201526024016103d1565b506001600160a01b031660009081526003602052604090205490565b610547610bac565b6105516000610bd9565b565b6000838152600260205260409020546001600160a01b03166105b75760405162461bcd60e51b815260206004820152601f60248201527f426c6f636b61626c653a20746f6b656e20646f6573206e6f742065786973740060448201526064016103d1565b336105c1846104ec565b6001600160a01b031614806105ef5750336105e46007546001600160a01b031690565b6001600160a01b0316145b6106545760405162461bcd60e51b815260206004820152603060248201527f426c6f636b61626c653a2063616c6c6572206973206e6f74206f776e6572206f60448201526f391031b7b73a3930b1ba1037bbb732b960811b60648201526084016103d1565b61065e8383610b5c565b600083815260096020526040902061067682826115d4565b50827f726abad6eb55e07e0743b69e582285757a338e05a30df71507e0f9ea6b94bcf7826040516106a79190611225565b60405180910390a2505050565b6060600180546102f09061152d565b6103a7338383610c2b565b6106d98484846103ab565b6104353385858585610cca565b60606106f1826109b8565b506000828152600660205260408120805461070b9061152d565b80601f01602080910402602001604051908101604052809291908181526020018280546107379061152d565b80156107845780601f1061075957610100808354040283529160200191610784565b820191906000526020600020905b81548152906001019060200180831161076757829003601f168201915b5050505050905060006107a260408051602081019091526000815290565b905080516000036107b4575092915050565b8151156107e65780826040516020016107ce929190611694565b60405160208183030381529060405292505050919050565b6107ef84610df5565b949350505050565b6001600160a01b03918216600090815260056020908152604080832093909416825291909152205460ff1690565b61082d610bac565b6001600160a01b03811661085757604051631e4fbdf760e01b8152600060048201526024016103d1565b61086081610bd9565b50565b6000818152600260205260409020546060906001600160a01b03166108ca5760405162461bcd60e51b815260206004820152601f60248201527f426c6f636b61626c653a20746f6b656e20646f6573206e6f742065786973740060448201526064016103d1565b600082815260096020526040902080546108e39061152d565b80601f016020809104026020016040519081016040528092919081815260200182805461090f9061152d565b801561095c5780601f106109315761010080835404028352916020019161095c565b820191906000526020600020905b81548152906001019060200180831161093f57829003601f168201915b50505050509050919050565b60006001600160e01b031982166380ac58cd60e01b148061099957506001600160e01b03198216635b5e139f60e01b145b806102db57506301ffc9a760e01b6001600160e01b03198316146102db565b6000818152600260205260408120546001600160a01b0316806102db57604051637e27328960e01b8152600481018490526024016103d1565b6104568383836001610e6a565b6000828152600260205260408120546001600160a01b0390811690831615610a2b57610a2b818486610f70565b6001600160a01b03811615610a6957610a48600085600080610e6a565b6001600160a01b038116600090815260036020526040902080546000190190555b6001600160a01b03851615610a98576001600160a01b0385166000908152600360205260409020805460010190555b60008481526002602052604080822080546001600160a01b0319166001600160a01b0389811691821790925591518793918516917fddf252ad1be2c89b69c2b068fc378daa952ba7f163c4a11628f55a4df523b3ef91a4949350505050565b6001600160a01b038216610b2157604051633250574960e11b8152600060048201526024016103d1565b6000610b2f838360006109fe565b90506001600160a01b03811615610456576040516339e3563760e11b8152600060048201526024016103d1565b6000828152600660205260409020610b7482826115d4565b506040518281527ff8e1a15aba9398e019f0b49df1a4fde98ee17ae345cb5f6b5e2c27f5033e8ce79060200160405180910390a15050565b6007546001600160a01b031633146105515760405163118cdaa760e01b81523360048201526024016103d1565b600780546001600160a01b038381166001600160a01b0319831681179093556040519116919082907f8be0079c531659141344cd1fd0a4f28419497f9722a3daafe3b4186f6b6457e090600090a35050565b6001600160a01b038216610c5d57604051630b61174360e31b81526001600160a01b03831660048201526024016103d1565b6001600160a01b03838116600081815260056020908152604080832094871680845294825291829020805460ff191686151590811790915591519182527f17307eab39ab6107e8899845ad3d59bd9653f200f220920489ca2b5937696c31910160405180910390a3505050565b6001600160a01b0383163b15610dee57604051630a85bd0160e11b81526001600160a01b0384169063150b7a0290610d0c9088908890879087906004016116c3565b6020604051808303816000875af1925050508015610d47575060408051601f3d908101601f19168201909252610d4491810190611700565b60015b610db0573d808015610d75576040519150601f19603f3d011682016040523d82523d6000602084013e610d7a565b606091505b508051600003610da857604051633250574960e11b81526001600160a01b03851660048201526024016103d1565b805181602001fd5b6001600160e01b03198116630a85bd0160e11b14610dec57604051633250574960e11b81526001600160a01b03851660048201526024016103d1565b505b5050505050565b6060610e00826109b8565b506000610e1860408051602081019091526000815290565b90506000815111610e385760405180602001604052806000815250610e63565b80610e4284610fd4565b604051602001610e53929190611694565b6040516020818303038152906040525b9392505050565b8080610e7e57506001600160a01b03821615155b15610f40576000610e8e846109b8565b90506001600160a01b03831615801590610eba5750826001600160a01b0316816001600160a01b031614155b8015610ecd5750610ecb81846107f7565b155b15610ef65760405163a9fbf51f60e01b81526001600160a01b03841660048201526024016103d1565b8115610f3e5783856001600160a01b0316826001600160a01b03167f8c5be1e5ebec7d5bd14f71427d1e84f3dd0314c0f7b2291e5b200ac8c7c3b92560405160405180910390a45b505b5050600090815260046020526040902080546001600160a01b0319166001600160a01b0392909216919091179055565b610f7b838383611067565b610456576001600160a01b038316610fa957604051637e27328960e01b8152600481018290526024016103d1565b60405163177e802f60e01b81526001600160a01b0383166004820152602481018290526044016103d1565b60606000610fe1836110ca565b600101905060008167ffffffffffffffff811115611001576110016112d3565b6040519080825280601f01601f19166020018201604052801561102b576020820181803683370190505b5090508181016020015b600019016f181899199a1a9b1b9c1cb0b131b232b360811b600a86061a8153600a850494508461103557509392505050565b60006001600160a01b038316158015906107ef5750826001600160a01b0316846001600160a01b031614806110a157506110a184846107f7565b806107ef5750506000908152600460205260409020546001600160a01b03908116911614919050565b60008072184f03e93ff9f4daa797ed6e38ed64bf6a1f0160401b83106111095772184f03e93ff9f4daa797ed6e38ed64bf6a1f0160401b830492506040015b6d04ee2d6d415b85acef81000000008310611135576d04ee2d6d415b85acef8100000000830492506020015b662386f26fc10000831061115357662386f26fc10000830492506010015b6305f5e100831061116b576305f5e100830492506008015b612710831061117f57612710830492506004015b60648310611191576064830492506002015b600a83106102db5760010192915050565b6001600160e01b03198116811461086057600080fd5b6000602082840312156111ca57600080fd5b8135610e63816111a2565b60005b838110156111f05781810151838201526020016111d8565b50506000910152565b600081518084526112118160208601602086016111d5565b601f01601f19169290920160200192915050565b602081526000610e6360208301846111f9565b60006020828403121561124a57600080fd5b5035919050565b80356001600160a01b038116811461126857600080fd5b919050565b6000806040838503121561128057600080fd5b61128983611251565b946020939093013593505050565b6000806000606084860312156112ac57600080fd5b6112b584611251565b92506112c360208501611251565b9150604084013590509250925092565b634e487b7160e01b600052604160045260246000fd5b600067ffffffffffffffff80841115611304576113046112d3565b604051601f8501601f19908116603f0116810190828211818310171561132c5761132c6112d3565b8160405280935085815286868601111561134557600080fd5b858560208301376000602087830101525050509392505050565b600082601f83011261137057600080fd5b610e63838335602085016112e9565b60008060006060848603121561139457600080fd5b61139d84611251565b9250602084013567ffffffffffffffff808211156113ba57600080fd5b6113c68783880161135f565b935060408601359150808211156113dc57600080fd5b506113e98682870161135f565b9150509250925092565b60006020828403121561140557600080fd5b610e6382611251565b60008060006060848603121561142357600080fd5b83359250602084013567ffffffffffffffff808211156113ba57600080fd5b6000806040838503121561145557600080fd5b61145e83611251565b91506020830135801515811461147357600080fd5b809150509250929050565b6000806000806080858703121561149457600080fd5b61149d85611251565b93506114ab60208601611251565b925060408501359150606085013567ffffffffffffffff8111156114ce57600080fd5b8501601f810187136114df57600080fd5b6114ee878235602084016112e9565b91505092959194509250565b6000806040838503121561150d57600080fd5b61151683611251565b915061152460208401611251565b90509250929050565b600181811c9082168061154157607f821691505b60208210810361156157634e487b7160e01b600052602260045260246000fd5b50919050565b60006001820161158757634e487b7160e01b600052601160045260246000fd5b5060010190565b601f82111561045657600081815260208120601f850160051c810160208610156115b55750805b601f850160051c820191505b81811015610dec578281556001016115c1565b815167ffffffffffffffff8111156115ee576115ee6112d3565b611602816115fc845461152d565b8461158e565b602080601f831160018114611637576000841561161f5750858301515b600019600386901b1c1916600185901b178555610dec565b600085815260208120601f198616915b8281101561166657888601518255948401946001909101908401611647565b50858210156116845787850151600019600388901b60f8161c191681555b5050505050600190811b01905550565b600083516116a68184602088016111d5565b8351908301906116ba8183602088016111d5565b01949350505050565b6001600160a01b03858116825284166020820152604081018390526080606082018190526000906116f6908301846111f9565b9695505050505050565b60006020828403121561171257600080fd5b8151610e63816111a256fea2646970667358221220d60ffafabb7077ff1829fbae4229fb064de916f97291ded25f3f481bd990e9f064736f6c63430008140033","opcodes":"PUSH1 0x80 PUSH1 0x40 MSTORE CALLVALUE DUP1 ISZERO PUSH3 0x11 JUMPI PUSH1 0x0 DUP1 REVERT JUMPDEST POP CALLER PUSH1 0x40 MLOAD DUP1 PUSH1 0x40 ADD PUSH1 0x40 MSTORE DUP1 PUSH1 0x9 DUP2 MSTORE PUSH1 0x20 ADD PUSH9 0x426C6F636B61626C65 PUSH1 0xB8 SHL DUP2 MSTORE POP PUSH1 0x40 MLOAD DUP1 PUSH1 0x40 ADD PUSH1 0x40 MSTORE DUP1 PUSH1 0x5 DUP2 MSTORE PUSH1 0x20 ADD PUSH5 0x424C4F434B PUSH1 0xD8 SHL DUP2 MSTORE POP DUP2 PUSH1 0x0 SWAP1 DUP2 PUSH3 0x64 SWAP2 SWAP1 PUSH3 0x1B3 JUMP JUMPDEST POP PUSH1 0x1 PUSH3 0x73 DUP3 DUP3 PUSH3 0x1B3 JUMP JUMPDEST POP POP POP PUSH1 0x1 PUSH1 0x1 PUSH1 0xA0 SHL SUB DUP2 AND PUSH3 0xA5 JUMPI PUSH1 0x40 MLOAD PUSH4 0x1E4FBDF7 PUSH1 0xE0 SHL DUP2 MSTORE PUSH1 0x0 PUSH1 0x4 DUP3 ADD MSTORE PUSH1 0x24 ADD PUSH1 0x40 MLOAD DUP1 SWAP2 SUB SWAP1 REVERT JUMPDEST PUSH3 0xB0 DUP2 PUSH3 0xBC JUMP JUMPDEST POP PUSH1 0x0 PUSH1 0x8 SSTORE PUSH3 0x27F JUMP JUMPDEST PUSH1 0x7 DUP1 SLOAD PUSH1 0x1 PUSH1 0x1 PUSH1 0xA0 SHL SUB DUP4 DUP2 AND PUSH1 0x1 PUSH1 0x1 PUSH1 0xA0 SHL SUB NOT DUP4 AND DUP2 OR SWAP1 SWAP4 SSTORE PUSH1 0x40 MLOAD SWAP2 AND SWAP2 SWAP1 DUP3 SWAP1 PUSH32 0x8BE0079C531659141344CD1FD0A4F28419497F9722A3DAAFE3B4186F6B6457E0 SWAP1 PUSH1 0x0 SWAP1 LOG3 POP POP JUMP JUMPDEST PUSH4 0x4E487B71 PUSH1 0xE0 SHL PUSH1 0x0 MSTORE PUSH1 0x41 PUSH1 0x4 MSTORE PUSH1 0x24 PUSH1 0x0 REVERT JUMPDEST PUSH1 0x1 DUP2 DUP2 SHR SWAP1 DUP3 AND DUP1 PUSH3 0x139 JUMPI PUSH1 0x7F DUP3 AND SWAP2 POP JUMPDEST PUSH1 0x20 DUP3 LT DUP2 SUB PUSH3 0x15A JUMPI PUSH4 0x4E487B71 PUSH1 0xE0 SHL PUSH1 0x0 MSTORE PUSH1 0x22 PUSH1 0x4 MSTORE PUSH1 0x24 PUSH1 0x0 REVERT JUMPDEST POP SWAP2 SWAP1 POP JUMP JUMPDEST PUSH1 0x1F DUP3 GT ISZERO PUSH3 0x1AE JUMPI PUSH1 0x0 DUP2 DUP2 MSTORE PUSH1 0x20 DUP2 KECCAK256 PUSH1 0x1F DUP6 ADD PUSH1 0x5 SHR DUP2 ADD PUSH1 0x20 DUP7 LT ISZERO PUSH3 0x189 JUMPI POP DUP1 JUMPDEST PUSH1 0x1F DUP6 ADD PUSH1 0x5 SHR DUP3 ADD SWAP2 POP JUMPDEST DUP2 DUP2 LT ISZERO PUSH3 0x1AA JUMPI DUP3 DUP2 SSTORE PUSH1 0x1 ADD PUSH3 0x195 JUMP JUMPDEST POP POP POP JUMPDEST POP POP POP JUMP JUMPDEST DUP2 MLOAD PUSH1 0x1 PUSH1 0x1 PUSH1 0x40 SHL SUB DUP2 GT ISZERO PUSH3 0x1CF JUMPI PUSH3 0x1CF PUSH3 0x10E JUMP JUMPDEST PUSH3 0x1E7 DUP2 PUSH3 0x1E0 DUP5 SLOAD PUSH3 0x124 JUMP JUMPDEST DUP5 PUSH3 0x160 JUMP JUMPDEST PUSH1 0x20 DUP1 PUSH1 0x1F DUP4 GT PUSH1 0x1 DUP2 EQ PUSH3 0x21F JUMPI PUSH1 0x0 DUP5 ISZERO PUSH3 0x206 JUMPI POP DUP6 DUP4 ADD MLOAD JUMPDEST PUSH1 0x0 NOT PUSH1 0x3 DUP7 SWAP1 SHL SHR NOT AND PUSH1 0x1 DUP6 SWAP1 SHL OR DUP6 SSTORE PUSH3 0x1AA JUMP JUMPDEST PUSH1 0x0 DUP6 DUP2 MSTORE PUSH1 0x20 DUP2 KECCAK256 PUSH1 0x1F NOT DUP7 AND SWAP2 JUMPDEST DUP3 DUP2 LT ISZERO PUSH3 0x250 JUMPI DUP9 DUP7 ADD MLOAD DUP3 SSTORE SWAP5 DUP5 ADD SWAP5 PUSH1 0x1 SWAP1 SWAP2 ADD SWAP1 DUP5 ADD PUSH3 0x22F JUMP JUMPDEST POP DUP6 DUP3 LT ISZERO PUSH3 0x26F JUMPI DUP8 DUP6 ADD MLOAD PUSH1 0x0 NOT PUSH1 0x3 DUP9 SWAP1 SHL PUSH1 0xF8 AND SHR NOT AND DUP2 SSTORE JUMPDEST POP POP POP POP POP PUSH1 0x1 SWAP1 DUP2 SHL ADD SWAP1 SSTORE POP JUMP JUMPDEST PUSH2 0x1753 DUP1 PUSH3 0x28F PUSH1 0x0 CODECOPY PUSH1 0x0 RETURN INVALID PUSH1 0x80 PUSH1 0x40 MSTORE CALLVALUE DUP1 ISZERO PUSH2 0x10 JUMPI PUSH1 0x0 DUP1 REVERT JUMPDEST POP PUSH1 0x4 CALLDATASIZE LT PUSH2 0x121 JUMPI PUSH1 0x0 CALLDATALOAD PUSH1 0xE0 SHR DUP1 PUSH4 0x715018A6 GT PUSH2 0xAD JUMPI DUP1 PUSH4 0xB88D4FDE GT PUSH2 0x71 JUMPI DUP1 PUSH4 0xB88D4FDE EQ PUSH2 0x257 JUMPI DUP1 PUSH4 0xC87B56DD EQ PUSH2 0x26A JUMPI DUP1 PUSH4 0xE985E9C5 EQ PUSH2 0x27D JUMPI DUP1 PUSH4 0xF2FDE38B EQ PUSH2 0x290 JUMPI DUP1 PUSH4 0xF448F871 EQ PUSH2 0x2A3 JUMPI PUSH1 0x0 DUP1 REVERT JUMPDEST DUP1 PUSH4 0x715018A6 EQ PUSH2 0x210 JUMPI DUP1 PUSH4 0x7A2D93B2 EQ PUSH2 0x218 JUMPI DUP1 PUSH4 0x8DA5CB5B EQ PUSH2 0x22B JUMPI DUP1 PUSH4 0x95D89B41 EQ PUSH2 0x23C JUMPI DUP1 PUSH4 0xA22CB465 EQ PUSH2 0x244 JUMPI PUSH1 0x0 DUP1 REVERT JUMPDEST DUP1 PUSH4 0x23B872DD GT PUSH2 0xF4 JUMPI DUP1 PUSH4 0x23B872DD EQ PUSH2 0x1A3 JUMPI DUP1 PUSH4 0x42842E0E EQ PUSH2 0x1B6 JUMPI DUP1 PUSH4 0x457C2291 EQ PUSH2 0x1C9 JUMPI DUP1 PUSH4 0x6352211E EQ PUSH2 0x1EA JUMPI DUP1 PUSH4 0x70A08231 EQ PUSH2 0x1FD JUMPI PUSH1 0x0 DUP1 REVERT JUMPDEST DUP1 PUSH4 0x1FFC9A7 EQ PUSH2 0x126 JUMPI DUP1 PUSH4 0x6FDDE03 EQ PUSH2 0x14E JUMPI DUP1 PUSH4 0x81812FC EQ PUSH2 0x163 JUMPI DUP1 PUSH4 0x95EA7B3 EQ PUSH2 0x18E JUMPI JUMPDEST PUSH1 0x0 DUP1 REVERT JUMPDEST PUSH2 0x139 PUSH2 0x134 CALLDATASIZE PUSH1 0x4 PUSH2 0x11B8 JUMP JUMPDEST PUSH2 0x2B6 JUMP JUMPDEST PUSH1 0x40 MLOAD SWAP1 ISZERO ISZERO DUP2 MSTORE PUSH1 0x20 ADD JUMPDEST PUSH1 0x40 MLOAD DUP1 SWAP2 SUB SWAP1 RETURN JUMPDEST PUSH2 0x156 PUSH2 0x2E1 JUMP JUMPDEST PUSH1 0x40 MLOAD PUSH2 0x145 SWAP2 SWAP1 PUSH2 0x1225 JUMP JUMPDEST PUSH2 0x176 PUSH2 0x171 CALLDATASIZE PUSH1 0x4 PUSH2 0x1238 JUMP JUMPDEST PUSH2 0x373 JUMP JUMPDEST PUSH1 0x40 MLOAD PUSH1 0x1 PUSH1 0x1 PUSH1 0xA0 SHL SUB SWAP1 SWAP2 AND DUP2 MSTORE PUSH1 0x20 ADD PUSH2 0x145 JUMP JUMPDEST PUSH2 0x1A1 PUSH2 0x19C CALLDATASIZE PUSH1 0x4 PUSH2 0x126D JUMP JUMPDEST PUSH2 0x39C JUMP JUMPDEST STOP JUMPDEST PUSH2 0x1A1 PUSH2 0x1B1 CALLDATASIZE PUSH1 0x4 PUSH2 0x1297 JUMP JUMPDEST PUSH2 0x3AB JUMP JUMPDEST PUSH2 0x1A1 PUSH2 0x1C4 CALLDATASIZE PUSH1 0x4 PUSH2 0x1297 JUMP JUMPDEST PUSH2 0x43B JUMP JUMPDEST PUSH2 0x1DC PUSH2 0x1D7 CALLDATASIZE PUSH1 0x4 PUSH2 0x137F JUMP JUMPDEST PUSH2 0x45B JUMP JUMPDEST PUSH1 0x40 MLOAD SWAP1 DUP2 MSTORE PUSH1 0x20 ADD PUSH2 0x145 JUMP JUMPDEST PUSH2 0x176 PUSH2 0x1F8 CALLDATASIZE PUSH1 0x4 PUSH2 0x1238 JUMP JUMPDEST PUSH2 0x4EC JUMP JUMPDEST PUSH2 0x1DC PUSH2 0x20B CALLDATASIZE PUSH1 0x4 PUSH2 0x13F3 JUMP JUMPDEST PUSH2 0x4F7 JUMP JUMPDEST PUSH2 0x1A1 PUSH2 0x53F JUMP JUMPDEST PUSH2 0x1A1 PUSH2 0x226 CALLDATASIZE PUSH1 0x4 PUSH2 0x140E JUMP JUMPDEST PUSH2 0x553 JUMP JUMPDEST PUSH1 0x7 SLOAD PUSH1 0x1 PUSH1 0x1 PUSH1 0xA0 SHL SUB AND PUSH2 0x176 JUMP JUMPDEST PUSH2 0x156 PUSH2 0x6B4 JUMP JUMPDEST PUSH2 0x1A1 PUSH2 0x252 CALLDATASIZE PUSH1 0x4 PUSH2 0x1442 JUMP JUMPDEST PUSH2 0x6C3 JUMP JUMPDEST PUSH2 0x1A1 PUSH2 0x265 CALLDATASIZE PUSH1 0x4 PUSH2 0x147E JUMP JUMPDEST PUSH2 0x6CE JUMP JUMPDEST PUSH2 0x156 PUSH2 0x278 CALLDATASIZE PUSH1 0x4 PUSH2 0x1238 JUMP JUMPDEST PUSH2 0x6E6 JUMP JUMPDEST PUSH2 0x139 PUSH2 0x28B CALLDATASIZE PUSH1 0x4 PUSH2 0x14FA JUMP JUMPDEST PUSH2 0x7F7 JUMP JUMPDEST PUSH2 0x1A1 PUSH2 0x29E CALLDATASIZE PUSH1 0x4 PUSH2 0x13F3 JUMP JUMPDEST PUSH2 0x825 JUMP JUMPDEST PUSH2 0x156 PUSH2 0x2B1 CALLDATASIZE PUSH1 0x4 PUSH2 0x1238 JUMP JUMPDEST PUSH2 0x863 JUMP JUMPDEST PUSH1 0x0 PUSH1 0x1 PUSH1 0x1 PUSH1 0xE0 SHL SUB NOT DUP3 AND PUSH4 0x24832483 PUSH1 0xE1 SHL EQ DUP1 PUSH2 0x2DB JUMPI POP PUSH2 0x2DB DUP3 PUSH2 0x968 JUMP JUMPDEST SWAP3 SWAP2 POP POP JUMP JUMPDEST PUSH1 0x60 PUSH1 0x0 DUP1 SLOAD PUSH2 0x2F0 SWAP1 PUSH2 0x152D JUMP JUMPDEST DUP1 PUSH1 0x1F ADD PUSH1 0x20 DUP1 SWAP2 DIV MUL PUSH1 0x20 ADD PUSH1 0x40 MLOAD SWAP1 DUP2 ADD PUSH1 0x40 MSTORE DUP1 SWAP3 SWAP2 SWAP1 DUP2 DUP2 MSTORE PUSH1 0x20 ADD DUP3 DUP1 SLOAD PUSH2 0x31C SWAP1 PUSH2 0x152D JUMP JUMPDEST DUP1 ISZERO PUSH2 0x369 JUMPI DUP1 PUSH1 0x1F LT PUSH2 0x33E JUMPI PUSH2 0x100 DUP1 DUP4 SLOAD DIV MUL DUP4 MSTORE SWAP2 PUSH1 0x20 ADD SWAP2 PUSH2 0x369 JUMP JUMPDEST DUP3 ADD SWAP2 SWAP1 PUSH1 0x0 MSTORE PUSH1 0x20 PUSH1 0x0 KECCAK256 SWAP1 JUMPDEST DUP2 SLOAD DUP2 MSTORE SWAP1 PUSH1 0x1 ADD SWAP1 PUSH1 0x20 ADD DUP1 DUP4 GT PUSH2 0x34C JUMPI DUP3 SWAP1 SUB PUSH1 0x1F AND DUP3 ADD SWAP2 JUMPDEST POP POP POP POP POP SWAP1 POP SWAP1 JUMP JUMPDEST PUSH1 0x0 PUSH2 0x37E DUP3 PUSH2 0x9B8 JUMP JUMPDEST POP PUSH1 0x0 DUP3 DUP2 MSTORE PUSH1 0x4 PUSH1 0x20 MSTORE PUSH1 0x40 SWAP1 KECCAK256 SLOAD PUSH1 0x1 PUSH1 0x1 PUSH1 0xA0 SHL SUB AND PUSH2 0x2DB JUMP JUMPDEST PUSH2 0x3A7 DUP3 DUP3 CALLER PUSH2 0x9F1 JUMP JUMPDEST POP POP JUMP JUMPDEST PUSH1 0x1 PUSH1 0x1 PUSH1 0xA0 SHL SUB DUP3 AND PUSH2 0x3DA JUMPI PUSH1 0x40 MLOAD PUSH4 0x32505749 PUSH1 0xE1 SHL DUP2 MSTORE PUSH1 0x0 PUSH1 0x4 DUP3 ADD MSTORE PUSH1 0x24 ADD JUMPDEST PUSH1 0x40 MLOAD DUP1 SWAP2 SUB SWAP1 REVERT JUMPDEST PUSH1 0x0 PUSH2 0x3E7 DUP4 DUP4 CALLER PUSH2 0x9FE JUMP JUMPDEST SWAP1 POP DUP4 PUSH1 0x1 PUSH1 0x1 PUSH1 0xA0 SHL SUB AND DUP2 PUSH1 0x1 PUSH1 0x1 PUSH1 0xA0 SHL SUB AND EQ PUSH2 0x435 JUMPI PUSH1 0x40 MLOAD PUSH4 0x64283D7B PUSH1 0xE0 SHL DUP2 MSTORE PUSH1 0x1 PUSH1 0x1 PUSH1 0xA0 SHL SUB DUP1 DUP7 AND PUSH1 0x4 DUP4 ADD MSTORE PUSH1 0x24 DUP3 ADD DUP5 SWAP1 MSTORE DUP3 AND PUSH1 0x44 DUP3 ADD MSTORE PUSH1 0x64 ADD PUSH2 0x3D1 JUMP JUMPDEST POP POP POP POP JUMP JUMPDEST PUSH2 0x456 DUP4 DUP4 DUP4 PUSH1 0x40 MLOAD DUP1 PUSH1 0x20 ADD PUSH1 0x40 MSTORE DUP1 PUSH1 0x0 DUP2 MSTORE POP PUSH2 0x6CE JUMP JUMPDEST POP POP POP JUMP JUMPDEST PUSH1 0x8 DUP1 SLOAD PUSH1 0x0 SWAP2 DUP3 SWAP2 SWAP1 DUP3 PUSH2 0x46F DUP4 PUSH2 0x1567 JUMP JUMPDEST SWAP2 SWAP1 POP SSTORE SWAP1 POP PUSH2 0x47F DUP6 DUP3 PUSH2 0xAF7 JUMP JUMPDEST PUSH2 0x489 DUP2 DUP6 PUSH2 0xB5C JUMP JUMPDEST PUSH1 0x0 DUP2 DUP2 MSTORE PUSH1 0x9 PUSH1 0x20 MSTORE PUSH1 0x40 SWAP1 KECCAK256 PUSH2 0x4A1 DUP5 DUP3 PUSH2 0x15D4 JUMP JUMPDEST POP DUP5 PUSH1 0x1 PUSH1 0x1 PUSH1 0xA0 SHL SUB AND DUP2 PUSH32 0xA9C6DFECE4407C611C25470081B4040479895CFD325B1C56A232AE9E89B40B70 DUP6 PUSH1 0x40 MLOAD PUSH2 0x4DC SWAP2 SWAP1 PUSH2 0x1225 JUMP JUMPDEST PUSH1 0x40 MLOAD DUP1 SWAP2 SUB SWAP1 LOG3 SWAP5 SWAP4 POP POP POP POP JUMP JUMPDEST PUSH1 0x0 PUSH2 0x2DB DUP3 PUSH2 0x9B8 JUMP JUMPDEST PUSH1 0x0 PUSH1 0x1 PUSH1 0x1 PUSH1 0xA0 SHL SUB DUP3 AND PUSH2 0x523 JUMPI PUSH1 0x40 MLOAD PUSH4 0x22718AD9 PUSH1 0xE2 SHL DUP2 MSTORE PUSH1 0x0 PUSH1 0x4 DUP3 ADD MSTORE PUSH1 0x24 ADD PUSH2 0x3D1 JUMP JUMPDEST POP PUSH1 0x1 PUSH1 0x1 PUSH1 0xA0 SHL SUB AND PUSH1 0x0 SWAP1 DUP2 MSTORE PUSH1 0x3 PUSH1 0x20 MSTORE PUSH1 0x40 SWAP1 KECCAK256 SLOAD SWAP1 JUMP JUMPDEST PUSH2 0x547 PUSH2 0xBAC JUMP JUMPDEST PUSH2 0x551 PUSH1 0x0 PUSH2 0xBD9 JUMP JUMPDEST JUMP JUMPDEST PUSH1 0x0 DUP4 DUP2 MSTORE PUSH1 0x2 PUSH1 0x20 MSTORE PUSH1 0x40 SWAP1 KECCAK256 SLOAD PUSH1 0x1 PUSH1 0x1 PUSH1 0xA0 SHL SUB AND PUSH2 0x5B7 JUMPI PUSH1 0x40 MLOAD PUSH3 0x461BCD PUSH1 0xE5 SHL DUP2 MSTORE PUSH1 0x20 PUSH1 0x4 DUP3 ADD MSTORE PUSH1 0x1F PUSH1 0x24 DUP3 ADD MSTORE PUSH32 0x426C6F636B61626C653A20746F6B656E20646F6573206E6F7420657869737400 PUSH1 0x44 DUP3 ADD MSTORE PUSH1 0x64 ADD PUSH2 0x3D1 JUMP JUMPDEST CALLER PUSH2 0x5C1 DUP5 PUSH2 0x4EC JUMP JUMPDEST PUSH1 0x1 PUSH1 0x1 PUSH1 0xA0 SHL SUB AND EQ DUP1 PUSH2 0x5EF JUMPI POP CALLER PUSH2 0x5E4 PUSH1 0x7 SLOAD PUSH1 0x1 PUSH1 0x1 PUSH1 0xA0 SHL SUB AND SWAP1 JUMP JUMPDEST PUSH1 0x1 PUSH1 0x1 PUSH1 0xA0 SHL SUB AND EQ JUMPDEST PUSH2 0x654 JUMPI PUSH1 0x40 MLOAD PUSH3 0x461BCD PUSH1 0xE5 SHL DUP2 MSTORE PUSH1 0x20 PUSH1 0x4 DUP3 ADD MSTORE PUSH1 0x30 PUSH1 0x24 DUP3 ADD MSTORE PUSH32 0x426C6F636B61626C653A2063616C6C6572206973206E6F74206F776E6572206F PUSH1 0x44 DUP3 ADD MSTORE PUSH16 0x391031B7B73A3930B1BA1037BBB732B9 PUSH1 0x81 SHL PUSH1 0x64 DUP3 ADD MSTORE PUSH1 0x84 ADD PUSH2 0x3D1 JUMP JUMPDEST PUSH2 0x65E DUP4 DUP4 PUSH2 0xB5C JUMP JUMPDEST PUSH1 0x0 DUP4 DUP2 MSTORE PUSH1 0x9 PUSH1 0x20 MSTORE PUSH1 0x40 SWAP1 KECCAK256 PUSH2 0x676 DUP3 DUP3 PUSH2 0x15D4 JUMP JUMPDEST POP DUP3 PUSH32 0x726ABAD6EB55E07E0743B69E582285757A338E05A30DF71507E0F9EA6B94BCF7 DUP3 PUSH1 0x40 MLOAD PUSH2 0x6A7 SWAP2 SWAP1 PUSH2 0x1225 JUMP JUMPDEST PUSH1 0x40 MLOAD DUP1 SWAP2 SUB SWAP1 LOG2 POP POP POP JUMP JUMPDEST PUSH1 0x60 PUSH1 0x1 DUP1 SLOAD PUSH2 0x2F0 SWAP1 PUSH2 0x152D JUMP JUMPDEST PUSH2 0x3A7 CALLER DUP4 DUP4 PUSH2 0xC2B JUMP JUMPDEST PUSH2 0x6D9 DUP5 DUP5 DUP5 PUSH2 0x3AB JUMP JUMPDEST PUSH2 0x435 CALLER DUP6 DUP6 DUP6 DUP6 PUSH2 0xCCA JUMP JUMPDEST PUSH1 0x60 PUSH2 0x6F1 DUP3 PUSH2 0x9B8 JUMP JUMPDEST POP PUSH1 0x0 DUP3 DUP2 MSTORE PUSH1 0x6 PUSH1 0x20 MSTORE PUSH1 0x40 DUP2 KECCAK256 DUP1 SLOAD PUSH2 0x70B SWAP1 PUSH2 0x152D JUMP JUMPDEST DUP1 PUSH1 0x1F ADD PUSH1 0x20 DUP1 SWAP2 DIV MUL PUSH1 0x20 ADD PUSH1 0x40 MLOAD SWAP1 DUP2 ADD PUSH1 0x40 MSTORE DUP1 SWAP3 SWAP2 SWAP1 DUP2 DUP2 MSTORE PUSH1 0x20 ADD DUP3 DUP1 SLOAD PUSH2 0x737 SWAP1 PUSH2 0x152D JUMP JUMPDEST DUP1 ISZERO PUSH2 0x784 JUMPI DUP1 PUSH1 0x1F LT PUSH2 0x759 JUMPI PUSH2 0x100 DUP1 DUP4 SLOAD DIV MUL DUP4 MSTORE SWAP2 PUSH1 0x20 ADD SWAP2 PUSH2 0x784 JUMP JUMPDEST DUP3 ADD SWAP2 SWAP1 PUSH1 0x0 MSTORE PUSH1 0x20 PUSH1 0x0 KECCAK256 SWAP1 JUMPDEST DUP2 SLOAD DUP2 MSTORE SWAP1 PUSH1 0x1 ADD SWAP1 PUSH1 0x20 ADD DUP1 DUP4 GT PUSH2 0x767 JUMPI DUP3 SWAP1 SUB PUSH1 0x1F AND DUP3 ADD SWAP2 JUMPDEST POP POP POP POP POP SWAP1 POP PUSH1 0x0 PUSH2 0x7A2 PUSH1 0x40 DUP1 MLOAD PUSH1 0x20 DUP2 ADD SWAP1 SWAP2 MSTORE PUSH1 0x0 DUP2 MSTORE SWAP1 JUMP JUMPDEST SWAP1 POP DUP1 MLOAD PUSH1 0x0 SUB PUSH2 0x7B4 JUMPI POP SWAP3 SWAP2 POP POP JUMP JUMPDEST DUP2 MLOAD ISZERO PUSH2 0x7E6 JUMPI DUP1 DUP3 PUSH1 0x40 MLOAD PUSH1 0x20 ADD PUSH2 0x7CE SWAP3 SWAP2 SWAP1 PUSH2 0x1694 JUMP JUMPDEST PUSH1 0x40 MLOAD PUSH1 0x20 DUP2 DUP4 SUB SUB DUP2 MSTORE SWAP1 PUSH1 0x40 MSTORE SWAP3 POP POP POP SWAP2 SWAP1 POP JUMP JUMPDEST PUSH2 0x7EF DUP5 PUSH2 0xDF5 JUMP JUMPDEST SWAP5 SWAP4 POP POP POP POP JUMP JUMPDEST PUSH1 0x1 PUSH1 0x1 PUSH1 0xA0 SHL SUB SWAP2 DUP3 AND PUSH1 0x0 SWAP1 DUP2 MSTORE PUSH1 0x5 PUSH1 0x20 SWAP1 DUP2 MSTORE PUSH1 0x40 DUP1 DUP4 KECCAK256 SWAP4 SWAP1 SWAP5 AND DUP3 MSTORE SWAP2 SWAP1 SWAP2 MSTORE KECCAK256 SLOAD PUSH1 0xFF AND SWAP1 JUMP JUMPDEST PUSH2 0x82D PUSH2 0xBAC JUMP JUMPDEST PUSH1 0x1 PUSH1 0x1 PUSH1 0xA0 SHL SUB DUP2 AND PUSH2 0x857 JUMPI PUSH1 0x40 MLOAD PUSH4 0x1E4FBDF7 PUSH1 0xE0 SHL DUP2 MSTORE PUSH1 0x0 PUSH1 0x4 DUP3 ADD MSTORE PUSH1 0x24 ADD PUSH2 0x3D1 JUMP JUMPDEST PUSH2 0x860 DUP2 PUSH2 0xBD9 JUMP JUMPDEST POP JUMP JUMPDEST PUSH1 0x0 DUP2 DUP2 MSTORE PUSH1 0x2 PUSH1 0x20 MSTORE PUSH1 0x40 SWAP1 KECCAK256 SLOAD PUSH1 0x60 SWAP1 PUSH1 0x1 PUSH1 0x1 PUSH1 0xA0 SHL SUB AND PUSH2 0x8CA JUMPI PUSH1 0x40 MLOAD PUSH3 0x461BCD PUSH1 0xE5 SHL DUP2 MSTORE PUSH1 0x20 PUSH1 0x4 DUP3 ADD MSTORE PUSH1 0x1F PUSH1 0x24 DUP3 ADD MSTORE PUSH32 0x426C6F636B61626C653A20746F6B656E20646F6573206E6F7420657869737400 PUSH1 0x44 DUP3 ADD MSTORE PUSH1 0x64 ADD PUSH2 0x3D1 JUMP JUMPDEST PUSH1 0x0 DUP3 DUP2 MSTORE PUSH1 0x9 PUSH1 0x20 MSTORE PUSH1 0x40 SWAP1 KECCAK256 DUP1 SLOAD PUSH2 0x8E3 SWAP1 PUSH2 0x152D JUMP JUMPDEST DUP1 PUSH1 0x1F ADD PUSH1 0x20 DUP1 SWAP2 DIV MUL PUSH1 0x20 ADD PUSH1 0x40 MLOAD SWAP1 DUP2 ADD PUSH1 0x40 MSTORE DUP1 SWAP3 SWAP2 SWAP1 DUP2 DUP2 MSTORE PUSH1 0x20 ADD DUP3 DUP1 SLOAD PUSH2 0x90F SWAP1 PUSH2 0x152D JUMP JUMPDEST DUP1 ISZERO PUSH2 0x95C JUMPI DUP1 PUSH1 0x1F LT PUSH2 0x931 JUMPI PUSH2 0x100 DUP1 DUP4 SLOAD DIV MUL DUP4 MSTORE SWAP2 PUSH1 0x20 ADD SWAP2 PUSH2 0x95C JUMP JUMPDEST DUP3 ADD SWAP2 SWAP1 PUSH1 0x0 MSTORE PUSH1 0x20 PUSH1 0x0 KECCAK256 SWAP1 JUMPDEST DUP2 SLOAD DUP2 MSTORE SWAP1 PUSH1 0x1 ADD SWAP1 PUSH1 0x20 ADD DUP1 DUP4 GT PUSH2 0x93F JUMPI DUP3 SWAP1 SUB PUSH1 0x1F AND DUP3 ADD SWAP2 JUMPDEST POP POP POP POP POP SWAP1 POP SWAP2 SWAP1 POP JUMP JUMPDEST PUSH1 0x0 PUSH1 0x1 PUSH1 0x1 PUSH1 0xE0 SHL SUB NOT DUP3 AND PUSH4 0x80AC58CD PUSH1 0xE0 SHL EQ DUP1 PUSH2 0x999 JUMPI POP PUSH1 0x1 PUSH1 0x1 PUSH1 0xE0 SHL SUB NOT DUP3 AND PUSH4 0x5B5E139F PUSH1 0xE0 SHL EQ JUMPDEST DUP1 PUSH2 0x2DB JUMPI POP PUSH4 0x1FFC9A7 PUSH1 0xE0 SHL PUSH1 0x1 PUSH1 0x1 PUSH1 0xE0 SHL SUB NOT DUP4 AND EQ PUSH2 0x2DB JUMP JUMPDEST PUSH1 0x0 DUP2 DUP2 MSTORE PUSH1 0x2 PUSH1 0x20 MSTORE PUSH1 0x40 DUP2 KECCAK256 SLOAD PUSH1 0x1 PUSH1 0x1 PUSH1 0xA0 SHL SUB AND DUP1 PUSH2 0x2DB JUMPI PUSH1 0x40 MLOAD PUSH4 0x7E273289 PUSH1 0xE0 SHL DUP2 MSTORE PUSH1 0x4 DUP2 ADD DUP5 SWAP1 MSTORE PUSH1 0x24 ADD PUSH2 0x3D1 JUMP JUMPDEST PUSH2 0x456 DUP4 DUP4 DUP4 PUSH1 0x1 PUSH2 0xE6A JUMP JUMPDEST PUSH1 0x0 DUP3 DUP2 MSTORE PUSH1 0x2 PUSH1 0x20 MSTORE PUSH1 0x40 DUP2 KECCAK256 SLOAD PUSH1 0x1 PUSH1 0x1 PUSH1 0xA0 SHL SUB SWAP1 DUP2 AND SWAP1 DUP4 AND ISZERO PUSH2 0xA2B JUMPI PUSH2 0xA2B DUP2 DUP5 DUP7 PUSH2 0xF70 JUMP JUMPDEST PUSH1 0x1 PUSH1 0x1 PUSH1 0xA0 SHL SUB DUP2 AND ISZERO PUSH2 0xA69 JUMPI PUSH2 0xA48 PUSH1 0x0 DUP6 PUSH1 0x0 DUP1 PUSH2 0xE6A JUMP JUMPDEST PUSH1 0x1 PUSH1 0x1 PUSH1 0xA0 SHL SUB DUP2 AND PUSH1 0x0 SWAP1 DUP2 MSTORE PUSH1 0x3 PUSH1 0x20 MSTORE PUSH1 0x40 SWAP1 KECCAK256 DUP1 SLOAD PUSH1 0x0 NOT ADD SWAP1 SSTORE JUMPDEST PUSH1 0x1 PUSH1 0x1 PUSH1 0xA0 SHL SUB DUP6 AND ISZERO PUSH2 0xA98 JUMPI PUSH1 0x1 PUSH1 0x1 PUSH1 0xA0 SHL SUB DUP6 AND PUSH1 0x0 SWAP1 DUP2 MSTORE PUSH1 0x3 PUSH1 0x20 MSTORE PUSH1 0x40 SWAP1 KECCAK256 DUP1 SLOAD PUSH1 0x1 ADD SWAP1 SSTORE JUMPDEST PUSH1 0x0 DUP5 DUP2 MSTORE PUSH1 0x2 PUSH1 0x20 MSTORE PUSH1 0x40 DUP1 DUP3 KECCAK256 DUP1 SLOAD PUSH1 0x1 PUSH1 0x1 PUSH1 0xA0 SHL SUB NOT AND PUSH1 0x1 PUSH1 0x1 PUSH1 0xA0 SHL SUB DUP10 DUP2 AND SWAP2 DUP3 OR SWAP1 SWAP3 SSTORE SWAP2 MLOAD DUP8 SWAP4 SWAP2 DUP6 AND SWAP2 PUSH32 0xDDF252AD1BE2C89B69C2B068FC378DAA952BA7F163C4A11628F55A4DF523B3EF SWAP2 LOG4 SWAP5 SWAP4 POP POP POP POP JUMP JUMPDEST PUSH1 0x1 PUSH1 0x1 PUSH1 0xA0 SHL SUB DUP3 AND PUSH2 0xB21 JUMPI PUSH1 0x40 MLOAD PUSH4 0x32505749 PUSH1 0xE1 SHL DUP2 MSTORE PUSH1 0x0 PUSH1 0x4 DUP3 ADD MSTORE PUSH1 0x24 ADD PUSH2 0x3D1 JUMP JUMPDEST PUSH1 0x0 PUSH2 0xB2F DUP4 DUP4 PUSH1 0x0 PUSH2 0x9FE JUMP JUMPDEST SWAP1 POP PUSH1 0x1 PUSH1 0x1 PUSH1 0xA0 SHL SUB DUP2 AND ISZERO PUSH2 0x456 JUMPI PUSH1 0x40 MLOAD PUSH4 0x39E35637 PUSH1 0xE1 SHL DUP2 MSTORE PUSH1 0x0 PUSH1 0x4 DUP3 ADD MSTORE PUSH1 0x24 ADD PUSH2 0x3D1 JUMP JUMPDEST PUSH1 0x0 DUP3 DUP2 MSTORE PUSH1 0x6 PUSH1 0x20 MSTORE PUSH1 0x40 SWAP1 KECCAK256 PUSH2 0xB74 DUP3 DUP3 PUSH2 0x15D4 JUMP JUMPDEST POP PUSH1 0x40 MLOAD DUP3 DUP2 MSTORE PUSH32 0xF8E1A15ABA9398E019F0B49DF1A4FDE98EE17AE345CB5F6B5E2C27F5033E8CE7 SWAP1 PUSH1 0x20 ADD PUSH1 0x40 MLOAD DUP1 SWAP2 SUB SWAP1 LOG1 POP POP JUMP JUMPDEST PUSH1 0x7 SLOAD PUSH1 0x1 PUSH1 0x1 PUSH1 0xA0 SHL SUB AND CALLER EQ PUSH2 0x551 JUMPI PUSH1 0x40 MLOAD PUSH4 0x118CDAA7 PUSH1 0xE0 SHL DUP2 MSTORE CALLER PUSH1 0x4 DUP3 ADD MSTORE PUSH1 0x24 ADD PUSH2 0x3D1 JUMP JUMPDEST PUSH1 0x7 DUP1 SLOAD PUSH1 0x1 PUSH1 0x1 PUSH1 0xA0 SHL SUB DUP4 DUP2 AND PUSH1 0x1 PUSH1 0x1 PUSH1 0xA0 SHL SUB NOT DUP4 AND DUP2 OR SWAP1 SWAP4 SSTORE PUSH1 0x40 MLOAD SWAP2 AND SWAP2 SWAP1 DUP3 SWAP1 PUSH32 0x8BE0079C531659141344CD1FD0A4F28419497F9722A3DAAFE3B4186F6B6457E0 SWAP1 PUSH1 0x0 SWAP1 LOG3 POP POP JUMP JUMPDEST PUSH1 0x1 PUSH1 0x1 PUSH1 0xA0 SHL SUB DUP3 AND PUSH2 0xC5D JUMPI PUSH1 0x40 MLOAD PUSH4 0xB611743 PUSH1 0xE3 SHL DUP2 MSTORE PUSH1 0x1 PUSH1 0x1 PUSH1 0xA0 SHL SUB DUP4 AND PUSH1 0x4 DUP3 ADD MSTORE PUSH1 0x24 ADD PUSH2 0x3D1 JUMP JUMPDEST PUSH1 0x1 PUSH1 0x1 PUSH1 0xA0 SHL SUB DUP4 DUP2 AND PUSH1 0x0 DUP2 DUP2 MSTORE PUSH1 0x5 PUSH1 0x20 SWAP1 DUP2 MSTORE PUSH1 0x40 DUP1 DUP4 KECCAK256 SWAP5 DUP8 AND DUP1 DUP5 MSTORE SWAP5 DUP3 MSTORE SWAP2 DUP3 SWAP1 KECCAK256 DUP1 SLOAD PUSH1 0xFF NOT AND DUP7 ISZERO ISZERO SWAP1 DUP2 OR SWAP1 SWAP2 SSTORE SWAP2 MLOAD SWAP2 DUP3 MSTORE PUSH32 0x17307EAB39AB6107E8899845AD3D59BD9653F200F220920489CA2B5937696C31 SWAP2 ADD PUSH1 0x40 MLOAD DUP1 SWAP2 SUB SWAP1 LOG3 POP POP POP JUMP JUMPDEST PUSH1 0x1 PUSH1 0x1 PUSH1 0xA0 SHL SUB DUP4 AND EXTCODESIZE ISZERO PUSH2 0xDEE JUMPI PUSH1 0x40 MLOAD PUSH4 0xA85BD01 PUSH1 0xE1 SHL DUP2 MSTORE PUSH1 0x1 PUSH1 0x1 PUSH1 0xA0 SHL SUB DUP5 AND SWAP1 PUSH4 0x150B7A02 SWAP1 PUSH2 0xD0C SWAP1 DUP9 SWAP1 DUP9 SWAP1 DUP8 SWAP1 DUP8 SWAP1 PUSH1 0x4 ADD PUSH2 0x16C3 JUMP JUMPDEST PUSH1 0x20 PUSH1 0x40 MLOAD DUP1 DUP4 SUB DUP2 PUSH1 0x0 DUP8 GAS CALL SWAP3 POP POP POP DUP1 ISZERO PUSH2 0xD47 JUMPI POP PUSH1 0x40 DUP1 MLOAD PUSH1 0x1F RETURNDATASIZE SWAP1 DUP2 ADD PUSH1 0x1F NOT AND DUP3 ADD SWAP1 SWAP3 MSTORE PUSH2 0xD44 SWAP2 DUP2 ADD SWAP1 PUSH2 0x1700 JUMP JUMPDEST PUSH1 0x1 JUMPDEST PUSH2 0xDB0 JUMPI RETURNDATASIZE DUP1 DUP1 ISZERO PUSH2 0xD75 JUMPI PUSH1 0x40 MLOAD SWAP2 POP PUSH1 0x1F NOT PUSH1 0x3F RETURNDATASIZE ADD AND DUP3 ADD PUSH1 0x40 MSTORE RETURNDATASIZE DUP3 MSTORE RETURNDATASIZE PUSH1 0x0 PUSH1 0x20 DUP5 ADD RETURNDATACOPY PUSH2 0xD7A JUMP JUMPDEST PUSH1 0x60 SWAP2 POP JUMPDEST POP DUP1 MLOAD PUSH1 0x0 SUB PUSH2 0xDA8 JUMPI PUSH1 0x40 MLOAD PUSH4 0x32505749 PUSH1 0xE1 SHL DUP2 MSTORE PUSH1 0x1 PUSH1 0x1 PUSH1 0xA0 SHL SUB DUP6 AND PUSH1 0x4 DUP3 ADD MSTORE PUSH1 0x24 ADD PUSH2 0x3D1 JUMP JUMPDEST DUP1 MLOAD DUP2 PUSH1 0x20 ADD REVERT JUMPDEST PUSH1 0x1 PUSH1 0x1 PUSH1 0xE0 SHL SUB NOT DUP2 AND PUSH4 0xA85BD01 PUSH1 0xE1 SHL EQ PUSH2 0xDEC JUMPI PUSH1 0x40 MLOAD PUSH4 0x32505749 PUSH1 0xE1 SHL DUP2 MSTORE PUSH1 0x1 PUSH1 0x1 PUSH1 0xA0 SHL SUB DUP6 AND PUSH1 0x4 DUP3 ADD MSTORE PUSH1 0x24 ADD PUSH2 0x3D1 JUMP JUMPDEST POP JUMPDEST POP POP POP POP POP JUMP JUMPDEST PUSH1 0x60 PUSH2 0xE00 DUP3 PUSH2 0x9B8 JUMP JUMPDEST POP PUSH1 0x0 PUSH2 0xE18 PUSH1 0x40 DUP1 MLOAD PUSH1 0x20 DUP2 ADD SWAP1 SWAP2 MSTORE PUSH1 0x0 DUP2 MSTORE SWAP1 JUMP JUMPDEST SWAP1 POP PUSH1 0x0 DUP2 MLOAD GT PUSH2 0xE38 JUMPI PUSH1 0x40 MLOAD DUP1 PUSH1 0x20 ADD PUSH1 0x40 MSTORE DUP1 PUSH1 0x0 DUP2 MSTORE POP PUSH2 0xE63 JUMP JUMPDEST DUP1 PUSH2 0xE42 DUP5 PUSH2 0xFD4 JUMP JUMPDEST PUSH1 0x40 MLOAD PUSH1 0x20 ADD PUSH2 0xE53 SWAP3 SWAP2 SWAP1 PUSH2 0x1694 JUMP JUMPDEST PUSH1 0x40 MLOAD PUSH1 0x20 DUP2 DUP4 SUB SUB DUP2 MSTORE SWAP1 PUSH1 0x40 MSTORE JUMPDEST SWAP4 SWAP3 POP POP POP JUMP JUMPDEST DUP1 DUP1 PUSH2 0xE7E JUMPI POP PUSH1 0x1 PUSH1 0x1 PUSH1 0xA0 SHL SUB DUP3 AND ISZERO ISZERO JUMPDEST ISZERO PUSH2 0xF40 JUMPI PUSH1 0x0 PUSH2 0xE8E DUP5 PUSH2 0x9B8 JUMP JUMPDEST SWAP1 POP PUSH1 0x1 PUSH1 0x1 PUSH1 0xA0 SHL SUB DUP4 AND ISZERO DUP1 ISZERO SWAP1 PUSH2 0xEBA JUMPI POP DUP3 PUSH1 0x1 PUSH1 0x1 PUSH1 0xA0 SHL SUB AND DUP2 PUSH1 0x1 PUSH1 0x1 PUSH1 0xA0 SHL SUB AND EQ ISZERO JUMPDEST DUP1 ISZERO PUSH2 0xECD JUMPI POP PUSH2 0xECB DUP2 DUP5 PUSH2 0x7F7 JUMP JUMPDEST ISZERO JUMPDEST ISZERO PUSH2 0xEF6 JUMPI PUSH1 0x40 MLOAD PUSH4 0xA9FBF51F PUSH1 0xE0 SHL DUP2 MSTORE PUSH1 0x1 PUSH1 0x1 PUSH1 0xA0 SHL SUB DUP5 AND PUSH1 0x4 DUP3 ADD MSTORE PUSH1 0x24 ADD PUSH2 0x3D1 JUMP JUMPDEST DUP2 ISZERO PUSH2 0xF3E JUMPI DUP4 DUP6 PUSH1 0x1 PUSH1 0x1 PUSH1 0xA0 SHL SUB AND DUP3 PUSH1 0x1 PUSH1 0x1 PUSH1 0xA0 SHL SUB AND PUSH32 0x8C5BE1E5EBEC7D5BD14F71427D1E84F3DD0314C0F7B2291E5B200AC8C7C3B925 PUSH1 0x40 MLOAD PUSH1 0x40 MLOAD DUP1 SWAP2 SUB SWAP1 LOG4 JUMPDEST POP JUMPDEST POP POP PUSH1 0x0 SWAP1 DUP2 MSTORE PUSH1 0x4 PUSH1 0x20 MSTORE PUSH1 0x40 SWAP1 KECCAK256 DUP1 SLOAD PUSH1 0x1 PUSH1 0x1 PUSH1 0xA0 SHL SUB NOT AND PUSH1 0x1 PUSH1 0x1 PUSH1 0xA0 SHL SUB SWAP3 SWAP1 SWAP3 AND SWAP2 SWAP1 SWAP2 OR SWAP1 SSTORE JUMP JUMPDEST PUSH2 0xF7B DUP4 DUP4 DUP4 PUSH2 0x1067 JUMP JUMPDEST PUSH2 0x456 JUMPI PUSH1 0x1 PUSH1 0x1 PUSH1 0xA0 SHL SUB DUP4 AND PUSH2 0xFA9 JUMPI PUSH1 0x40 MLOAD PUSH4 0x7E273289 PUSH1 0xE0 SHL DUP2 MSTORE PUSH1 0x4 DUP2 ADD DUP3 SWAP1 MSTORE PUSH1 0x24 ADD PUSH2 0x3D1 JUMP JUMPDEST PUSH1 0x40 MLOAD PUSH4 0x177E802F PUSH1 0xE0 SHL DUP2 MSTORE PUSH1 0x1 PUSH1 0x1 PUSH1 0xA0 SHL SUB DUP4 AND PUSH1 0x4 DUP3 ADD MSTORE PUSH1 0x24 DUP2 ADD DUP3 SWAP1 MSTORE PUSH1 0x44 ADD PUSH2 0x3D1 JUMP JUMPDEST PUSH1 0x60 PUSH1 0x0 PUSH2 0xFE1 DUP4 PUSH2 0x10CA JUMP JUMPDEST PUSH1 0x1 ADD SWAP1 POP PUSH1 0x0 DUP2 PUSH8 0xFFFFFFFFFFFFFFFF DUP2 GT ISZERO PUSH2 0x1001 JUMPI PUSH2 0x1001 PUSH2 0x12D3 JUMP JUMPDEST PUSH1 0x40 MLOAD SWAP1 DUP1 DUP3 MSTORE DUP1 PUSH1 0x1F ADD PUSH1 0x1F NOT AND PUSH1 0x20 ADD DUP3 ADD PUSH1 0x40 MSTORE DUP1 ISZERO PUSH2 0x102B JUMPI PUSH1 0x20 DUP3 ADD DUP2 DUP1 CALLDATASIZE DUP4 CALLDATACOPY ADD SWAP1 POP JUMPDEST POP SWAP1 POP DUP2 DUP2 ADD PUSH1 0x20 ADD JUMPDEST PUSH1 0x0 NOT ADD PUSH16 0x181899199A1A9B1B9C1CB0B131B232B3 PUSH1 0x81 SHL PUSH1 0xA DUP7 MOD BYTE DUP2 MSTORE8 PUSH1 0xA DUP6 DIV SWAP5 POP DUP5 PUSH2 0x1035 JUMPI POP SWAP4 SWAP3 POP POP POP JUMP JUMPDEST PUSH1 0x0 PUSH1 0x1 PUSH1 0x1 PUSH1 0xA0 SHL SUB DUP4 AND ISZERO DUP1 ISZERO SWAP1 PUSH2 0x7EF JUMPI POP DUP3 PUSH1 0x1 PUSH1 0x1 PUSH1 0xA0 SHL SUB AND DUP5 PUSH1 0x1 PUSH1 0x1 PUSH1 0xA0 SHL SUB AND EQ DUP1 PUSH2 0x10A1 JUMPI POP PUSH2 0x10A1 DUP5 DUP5 PUSH2 0x7F7 JUMP JUMPDEST DUP1 PUSH2 0x7EF JUMPI POP POP PUSH1 0x0 SWAP1 DUP2 MSTORE PUSH1 0x4 PUSH1 0x20 MSTORE PUSH1 0x40 SWAP1 KECCAK256 SLOAD PUSH1 0x1 PUSH1 0x1 PUSH1 0xA0 SHL SUB SWAP1 DUP2 AND SWAP2 AND EQ SWAP2 SWAP1 POP JUMP JUMPDEST PUSH1 0x0 DUP1 PUSH19 0x184F03E93FF9F4DAA797ED6E38ED64BF6A1F01 PUSH1 0x40 SHL DUP4 LT PUSH2 0x1109 JUMPI PUSH19 0x184F03E93FF9F4DAA797ED6E38ED64BF6A1F01 PUSH1 0x40 SHL DUP4 DIV SWAP3 POP PUSH1 0x40 ADD JUMPDEST PUSH14 0x4EE2D6D415B85ACEF8100000000 DUP4 LT PUSH2 0x1135 JUMPI PUSH14 0x4EE2D6D415B85ACEF8100000000 DUP4 DIV SWAP3 POP PUSH1 0x20 ADD JUMPDEST PUSH7 0x2386F26FC10000 DUP4 LT PUSH2 0x1153 JUMPI PUSH7 0x2386F26FC10000 DUP4 DIV SWAP3 POP PUSH1 0x10 ADD JUMPDEST PUSH4 0x5F5E100 DUP4 LT PUSH2 0x116B JUMPI PUSH4 0x5F5E100 DUP4 DIV SWAP3 POP PUSH1 0x8 ADD JUMPDEST PUSH2 0x2710 DUP4 LT PUSH2 0x117F JUMPI PUSH2 0x2710 DUP4 DIV SWAP3 POP PUSH1 0x4 ADD JUMPDEST PUSH1 0x64 DUP4 LT PUSH2 0x1191 JUMPI PUSH1 0x64 DUP4 DIV SWAP3 POP PUSH1 0x2 ADD JUMPDEST PUSH1 0xA DUP4 LT PUSH2 0x2DB JUMPI PUSH1 0x1 ADD SWAP3 SWAP2 POP POP JUMP JUMPDEST PUSH1 0x1 PUSH1 0x1 PUSH1 0xE0 SHL SUB NOT DUP2 AND DUP2 EQ PUSH2 0x860 JUMPI PUSH1 0x0 DUP1 REVERT JUMPDEST PUSH1 0x0 PUSH1 0x20 DUP3 DUP5 SUB SLT ISZERO PUSH2 0x11CA JUMPI PUSH1 0x0 DUP1 REVERT JUMPDEST DUP2 CALLDATALOAD PUSH2 0xE63 DUP2 PUSH2 0x11A2 JUMP JUMPDEST PUSH1 0x0 JUMPDEST DUP4 DUP2 LT ISZERO PUSH2 0x11F0 JUMPI DUP2 DUP2 ADD MLOAD DUP4 DUP3 ADD MSTORE PUSH1 0x20 ADD PUSH2 0x11D8 JUMP JUMPDEST POP POP PUSH1 0x0 SWAP2 ADD MSTORE JUMP JUMPDEST PUSH1 0x0 DUP2 MLOAD DUP1 DUP5 MSTORE PUSH2 0x1211 DUP2 PUSH1 0x20 DUP7 ADD PUSH1 0x20 DUP7 ADD PUSH2 0x11D5 JUMP JUMPDEST PUSH1 0x1F ADD PUSH1 0x1F NOT AND SWAP3 SWAP1 SWAP3 ADD PUSH1 0x20 ADD SWAP3 SWAP2 POP POP JUMP JUMPDEST PUSH1 0x20 DUP2 MSTORE PUSH1 0x0 PUSH2 0xE63 PUSH1 0x20 DUP4 ADD DUP5 PUSH2 0x11F9 JUMP JUMPDEST PUSH1 0x0 PUSH1 0x20 DUP3 DUP5 SUB SLT ISZERO PUSH2 0x124A JUMPI PUSH1 0x0 DUP1 REVERT JUMPDEST POP CALLDATALOAD SWAP2 SWAP1 POP JUMP JUMPDEST DUP1 CALLDATALOAD PUSH1 0x1 PUSH1 0x1 PUSH1 0xA0 SHL SUB DUP2 AND DUP2 EQ PUSH2 0x1268 JUMPI PUSH1 0x0 DUP1 REVERT JUMPDEST SWAP2 SWAP1 POP JUMP JUMPDEST PUSH1 0x0 DUP1 PUSH1 0x40 DUP4 DUP6 SUB SLT ISZERO PUSH2 0x1280 JUMPI PUSH1 0x0 DUP1 REVERT JUMPDEST PUSH2 0x1289 DUP4 PUSH2 0x1251 JUMP JUMPDEST SWAP5 PUSH1 0x20 SWAP4 SWAP1 SWAP4 ADD CALLDATALOAD SWAP4 POP POP POP JUMP JUMPDEST PUSH1 0x0 DUP1 PUSH1 0x0 PUSH1 0x60 DUP5 DUP7 SUB SLT ISZERO PUSH2 0x12AC JUMPI PUSH1 0x0 DUP1 REVERT JUMPDEST PUSH2 0x12B5 DUP5 PUSH2 0x1251 JUMP JUMPDEST SWAP3 POP PUSH2 0x12C3 PUSH1 0x20 DUP6 ADD PUSH2 0x1251 JUMP JUMPDEST SWAP2 POP PUSH1 0x40 DUP5 ADD CALLDATALOAD SWAP1 POP SWAP3 POP SWAP3 POP SWAP3 JUMP JUMPDEST PUSH4 0x4E487B71 PUSH1 0xE0 SHL PUSH1 0x0 MSTORE PUSH1 0x41 PUSH1 0x4 MSTORE PUSH1 0x24 PUSH1 0x0 REVERT JUMPDEST PUSH1 0x0 PUSH8 0xFFFFFFFFFFFFFFFF DUP1 DUP5 GT ISZERO PUSH2 0x1304 JUMPI PUSH2 0x1304 PUSH2 0x12D3 JUMP JUMPDEST PUSH1 0x40 MLOAD PUSH1 0x1F DUP6 ADD PUSH1 0x1F NOT SWAP1 DUP2 AND PUSH1 0x3F ADD AND DUP2 ADD SWAP1 DUP3 DUP3 GT DUP2 DUP4 LT OR ISZERO PUSH2 0x132C JUMPI PUSH2 0x132C PUSH2 0x12D3 JUMP JUMPDEST DUP2 PUSH1 0x40 MSTORE DUP1 SWAP4 POP DUP6 DUP2 MSTORE DUP7 DUP7 DUP7 ADD GT ISZERO PUSH2 0x1345 JUMPI PUSH1 0x0 DUP1 REVERT JUMPDEST DUP6 DUP6 PUSH1 0x20 DUP4 ADD CALLDATACOPY PUSH1 0x0 PUSH1 0x20 DUP8 DUP4 ADD ADD MSTORE POP POP POP SWAP4 SWAP3 POP POP POP JUMP JUMPDEST PUSH1 0x0 DUP3 PUSH1 0x1F DUP4 ADD SLT PUSH2 0x1370 JUMPI PUSH1 0x0 DUP1 REVERT JUMPDEST PUSH2 0xE63 DUP4 DUP4 CALLDATALOAD PUSH1 0x20 DUP6 ADD PUSH2 0x12E9 JUMP JUMPDEST PUSH1 0x0 DUP1 PUSH1 0x0 PUSH1 0x60 DUP5 DUP7 SUB SLT ISZERO PUSH2 0x1394 JUMPI PUSH1 0x0 DUP1 REVERT JUMPDEST PUSH2 0x139D DUP5 PUSH2 0x1251 JUMP JUMPDEST SWAP3 POP PUSH1 0x20 DUP5 ADD CALLDATALOAD PUSH8 0xFFFFFFFFFFFFFFFF DUP1 DUP3 GT ISZERO PUSH2 0x13BA JUMPI PUSH1 0x0 DUP1 REVERT JUMPDEST PUSH2 0x13C6 DUP8 DUP4 DUP9 ADD PUSH2 0x135F JUMP JUMPDEST SWAP4 POP PUSH1 0x40 DUP7 ADD CALLDATALOAD SWAP2 POP DUP1 DUP3 GT ISZERO PUSH2 0x13DC JUMPI PUSH1 0x0 DUP1 REVERT JUMPDEST POP PUSH2 0x13E9 DUP7 DUP3 DUP8 ADD PUSH2 0x135F JUMP JUMPDEST SWAP2 POP POP SWAP3 POP SWAP3 POP SWAP3 JUMP JUMPDEST PUSH1 0x0 PUSH1 0x20 DUP3 DUP5 SUB SLT ISZERO PUSH2 0x1405 JUMPI PUSH1 0x0 DUP1 REVERT JUMPDEST PUSH2 0xE63 DUP3 PUSH2 0x1251 JUMP JUMPDEST PUSH1 0x0 DUP1 PUSH1 0x0 PUSH1 0x60 DUP5 DUP7 SUB SLT ISZERO PUSH2 0x1423 JUMPI PUSH1 0x0 DUP1 REVERT JUMPDEST DUP4 CALLDATALOAD SWAP3 POP PUSH1 0x20 DUP5 ADD CALLDATALOAD PUSH8 0xFFFFFFFFFFFFFFFF DUP1 DUP3 GT ISZERO PUSH2 0x13BA JUMPI PUSH1 0x0 DUP1 REVERT JUMPDEST PUSH1 0x0 DUP1 PUSH1 0x40 DUP4 DUP6 SUB SLT ISZERO PUSH2 0x1455 JUMPI PUSH1 0x0 DUP1 REVERT JUMPDEST PUSH2 0x145E DUP4 PUSH2 0x1251 JUMP JUMPDEST SWAP2 POP PUSH1 0x20 DUP4 ADD CALLDATALOAD DUP1 ISZERO ISZERO DUP2 EQ PUSH2 0x1473 JUMPI PUSH1 0x0 DUP1 REVERT JUMPDEST DUP1 SWAP2 POP POP SWAP3 POP SWAP3 SWAP1 POP JUMP JUMPDEST PUSH1 0x0 DUP1 PUSH1 0x0 DUP1 PUSH1 0x80 DUP6 DUP8 SUB SLT ISZERO PUSH2 0x1494 JUMPI PUSH1 0x0 DUP1 REVERT JUMPDEST PUSH2 0x149D DUP6 PUSH2 0x1251 JUMP JUMPDEST SWAP4 POP PUSH2 0x14AB PUSH1 0x20 DUP7 ADD PUSH2 0x1251 JUMP JUMPDEST SWAP3 POP PUSH1 0x40 DUP6 ADD CALLDATALOAD SWAP2 POP PUSH1 0x60 DUP6 ADD CALLDATALOAD PUSH8 0xFFFFFFFFFFFFFFFF DUP2 GT ISZERO PUSH2 0x14CE JUMPI PUSH1 0x0 DUP1 REVERT JUMPDEST DUP6 ADD PUSH1 0x1F DUP2 ADD DUP8 SGT PUSH2 0x14DF JUMPI PUSH1 0x0 DUP1 REVERT JUMPDEST PUSH2 0x14EE DUP8 DUP3 CALLDATALOAD PUSH1 0x20 DUP5 ADD PUSH2 0x12E9 JUMP JUMPDEST SWAP2 POP POP SWAP3 SWAP6 SWAP2 SWAP5 POP SWAP3 POP JUMP JUMPDEST PUSH1 0x0 DUP1 PUSH1 0x40 DUP4 DUP6 SUB SLT ISZERO PUSH2 0x150D JUMPI PUSH1 0x0 DUP1 REVERT JUMPDEST PUSH2 0x1516 DUP4 PUSH2 0x1251 JUMP JUMPDEST SWAP2 POP PUSH2 0x1524 PUSH1 0x20 DUP5 ADD PUSH2 0x1251 JUMP JUMPDEST SWAP1 POP SWAP3 POP SWAP3 SWAP1 POP JUMP JUMPDEST PUSH1 0x1 DUP2 DUP2 SHR SWAP1 DUP3 AND DUP1 PUSH2 0x1541 JUMPI PUSH1 0x7F DUP3 AND SWAP2 POP JUMPDEST PUSH1 0x20 DUP3 LT DUP2 SUB PUSH2 0x1561 JUMPI PUSH4 0x4E487B71 PUSH1 0xE0 SHL PUSH1 0x0 MSTORE PUSH1 0x22 PUSH1 0x4 MSTORE PUSH1 0x24 PUSH1 0x0 REVERT JUMPDEST POP SWAP2 SWAP1 POP JUMP JUMPDEST PUSH1 0x0 PUSH1 0x1 DUP3 ADD PUSH2 0x1587 JUMPI PUSH4 0x4E487B71 PUSH1 0xE0 SHL PUSH1 0x0 MSTORE PUSH1 0x11 PUSH1 0x4 MSTORE PUSH1 0x24 PUSH1 0x0 REVERT JUMPDEST POP PUSH1 0x1 ADD SWAP1 JUMP JUMPDEST PUSH1 0x1F DUP3 GT ISZERO PUSH2 0x456 JUMPI PUSH1 0x0 DUP2 DUP2 MSTORE PUSH1 0x20 DUP2 KECCAK256 PUSH1 0x1F DUP6 ADD PUSH1 0x5 SHR DUP2 ADD PUSH1 0x20 DUP7 LT ISZERO PUSH2 0x15B5 JUMPI POP DUP1 JUMPDEST PUSH1 0x1F DUP6 ADD PUSH1 0x5 SHR DUP3 ADD SWAP2 POP JUMPDEST DUP2 DUP2 LT ISZERO PUSH2 0xDEC JUMPI DUP3 DUP2 SSTORE PUSH1 0x1 ADD PUSH2 0x15C1 JUMP JUMPDEST DUP2 MLOAD PUSH8 0xFFFFFFFFFFFFFFFF DUP2 GT ISZERO PUSH2 0x15EE JUMPI PUSH2 0x15EE PUSH2 0x12D3 JUMP JUMPDEST PUSH2 0x1602 DUP2 PUSH2 0x15FC DUP5 SLOAD PUSH2 0x152D JUMP JUMPDEST DUP5 PUSH2 0x158E JUMP JUMPDEST PUSH1 0x20 DUP1 PUSH1 0x1F DUP4 GT PUSH1 0x1 DUP2 EQ PUSH2 0x1637 JUMPI PUSH1 0x0 DUP5 ISZERO PUSH2 0x161F JUMPI POP DUP6 DUP4 ADD MLOAD JUMPDEST PUSH1 0x0 NOT PUSH1 0x3 DUP7 SWAP1 SHL SHR NOT AND PUSH1 0x1 DUP6 SWAP1 SHL OR DUP6 SSTORE PUSH2 0xDEC JUMP JUMPDEST PUSH1 0x0 DUP6 DUP2 MSTORE PUSH1 0x20 DUP2 KECCAK256 PUSH1 0x1F NOT DUP7 AND SWAP2 JUMPDEST DUP3 DUP2 LT ISZERO PUSH2 0x1666 JUMPI DUP9 DUP7 ADD MLOAD DUP3 SSTORE SWAP5 DUP5 ADD SWAP5 PUSH1 0x1 SWAP1 SWAP2 ADD SWAP1 DUP5 ADD PUSH2 0x1647 JUMP JUMPDEST POP DUP6 DUP3 LT ISZERO PUSH2 0x1684 JUMPI DUP8 DUP6 ADD MLOAD PUSH1 0x0 NOT PUSH1 0x3 DUP9 SWAP1 SHL PUSH1 0xF8 AND SHR NOT AND DUP2 SSTORE JUMPDEST POP POP POP POP POP PUSH1 0x1 SWAP1 DUP2 SHL ADD SWAP1 SSTORE POP JUMP JUMPDEST PUSH1 0x0 DUP4 MLOAD PUSH2 0x16A6 DUP2 DUP5 PUSH1 0x20 DUP9 ADD PUSH2 0x11D5 JUMP JUMPDEST DUP4 MLOAD SWAP1 DUP4 ADD SWAP1 PUSH2 0x16BA DUP2 DUP4 PUSH1 0x20 DUP9 ADD PUSH2 0x11D5 JUMP JUMPDEST ADD SWAP5 SWAP4 POP POP POP POP JUMP JUMPDEST PUSH1 0x1 PUSH1 0x1 PUSH1 0xA0 SHL SUB DUP6 DUP2 AND DUP3 MSTORE DUP5 AND PUSH1 0x20 DUP3 ADD MSTORE PUSH1 0x40 DUP2 ADD DUP4 SWAP1 MSTORE PUSH1 0x80 PUSH1 0x60 DUP3 ADD DUP2 SWAP1 MSTORE PUSH1 0x0 SWAP1 PUSH2 0x16F6 SWAP1 DUP4 ADD DUP5 PUSH2 0x11F9 JUMP JUMPDEST SWAP7 SWAP6 POP POP POP POP POP POP JUMP JUMPDEST PUSH1 0x0 PUSH1 0x20 DUP3 DUP5 SUB SLT ISZERO PUSH2 0x1712 JUMPI PUSH1 0x0 DUP1 REVERT JUMPDEST DUP2 MLOAD PUSH2 0xE63 DUP2 PUSH2 0x11A2 JUMP INVALID LOG2 PUSH5 0x6970667358 0x22 SLT KECCAK256 0xD6 0xF STATICCALL STATICCALL 0xBB PUSH17 0x77FF1829FBAE4229FB064DE916F97291DE 0xD2 PUSH0 EXTCODEHASH BASEFEE SHL 0xD9 SWAP1 0xE9 CREATE PUSH5 0x736F6C6343 STOP ADDMOD EQ STOP CALLER "},"methodIdentifiers":{"approve(address,uint256)":"095ea7b3","balanceOf(address)":"70a08231","createArtifact(address,string,string)":"457c2291","getApproved(uint256)":"081812fc","getMetadataHash(uint256)":"f448f871","isApprovedForAll(address,address)":"e985e9c5","name()":"06fdde03","owner()":"8da5cb5b","ownerOf(uint256)":"6352211e","renounceOwnership()":"715018a6","safeTransferFrom(address,address,uint256)":"42842e0e","safeTransferFrom(address,address,uint256,bytes)":"b88d4fde","setApprovalForAll(address,bool)":"a22cb465","supportsInterface(bytes4)":"01ffc9a7","symbol()":"95d89b41","tokenURI(uint256)":"c87b56dd","transferFrom(address,address,uint256)":"23b872dd","transferOwnership(address)":"f2fde38b","updateArtifact(uint256,string,string)":"7a2d93b2"}}}}}